{
  "contractName": "EnergyToken",
  "abi": [
    {
      "inputs": [
        {
          "internalType": "address",
          "name": "_userRegistry",
          "type": "address"
        }
      ],
      "stateMutability": "nonpayable",
      "type": "constructor"
    },
    {
      "inputs": [
        {
          "internalType": "address",
          "name": "spender",
          "type": "address"
        },
        {
          "internalType": "uint256",
          "name": "allowance",
          "type": "uint256"
        },
        {
          "internalType": "uint256",
          "name": "needed",
          "type": "uint256"
        }
      ],
      "name": "ERC20InsufficientAllowance",
      "type": "error"
    },
    {
      "inputs": [
        {
          "internalType": "address",
          "name": "sender",
          "type": "address"
        },
        {
          "internalType": "uint256",
          "name": "balance",
          "type": "uint256"
        },
        {
          "internalType": "uint256",
          "name": "needed",
          "type": "uint256"
        }
      ],
      "name": "ERC20InsufficientBalance",
      "type": "error"
    },
    {
      "inputs": [
        {
          "internalType": "address",
          "name": "approver",
          "type": "address"
        }
      ],
      "name": "ERC20InvalidApprover",
      "type": "error"
    },
    {
      "inputs": [
        {
          "internalType": "address",
          "name": "receiver",
          "type": "address"
        }
      ],
      "name": "ERC20InvalidReceiver",
      "type": "error"
    },
    {
      "inputs": [
        {
          "internalType": "address",
          "name": "sender",
          "type": "address"
        }
      ],
      "name": "ERC20InvalidSender",
      "type": "error"
    },
    {
      "inputs": [
        {
          "internalType": "address",
          "name": "spender",
          "type": "address"
        }
      ],
      "name": "ERC20InvalidSpender",
      "type": "error"
    },
    {
      "anonymous": false,
      "inputs": [
        {
          "indexed": true,
          "internalType": "address",
          "name": "owner",
          "type": "address"
        },
        {
          "indexed": true,
          "internalType": "address",
          "name": "spender",
          "type": "address"
        },
        {
          "indexed": false,
          "internalType": "uint256",
          "name": "value",
          "type": "uint256"
        }
      ],
      "name": "Approval",
      "type": "event"
    },
    {
      "anonymous": false,
      "inputs": [
        {
          "indexed": true,
          "internalType": "address",
          "name": "from",
          "type": "address"
        },
        {
          "indexed": true,
          "internalType": "address",
          "name": "to",
          "type": "address"
        },
        {
          "indexed": false,
          "internalType": "uint256",
          "name": "batchId",
          "type": "uint256"
        },
        {
          "indexed": false,
          "internalType": "uint256",
          "name": "amount",
          "type": "uint256"
        }
      ],
      "name": "EnergyTransferred",
      "type": "event"
    },
    {
      "anonymous": false,
      "inputs": [
        {
          "indexed": true,
          "internalType": "uint256",
          "name": "batchId",
          "type": "uint256"
        },
        {
          "indexed": false,
          "internalType": "address",
          "name": "producer",
          "type": "address"
        },
        {
          "indexed": false,
          "internalType": "uint256",
          "name": "price",
          "type": "uint256"
        }
      ],
      "name": "NewBatch",
      "type": "event"
    },
    {
      "anonymous": false,
      "inputs": [
        {
          "indexed": false,
          "internalType": "uint256",
          "name": "newPrice",
          "type": "uint256"
        }
      ],
      "name": "PriceUpdated",
      "type": "event"
    },
    {
      "anonymous": false,
      "inputs": [
        {
          "indexed": true,
          "internalType": "address",
          "name": "from",
          "type": "address"
        },
        {
          "indexed": true,
          "internalType": "address",
          "name": "to",
          "type": "address"
        },
        {
          "indexed": false,
          "internalType": "uint256",
          "name": "value",
          "type": "uint256"
        }
      ],
      "name": "Transfer",
      "type": "event"
    },
    {
      "inputs": [],
      "name": "MAX_PRICE_HISTORY",
      "outputs": [
        {
          "internalType": "uint256",
          "name": "",
          "type": "uint256"
        }
      ],
      "stateMutability": "view",
      "type": "function"
    },
    {
      "inputs": [
        {
          "internalType": "address",
          "name": "owner",
          "type": "address"
        },
        {
          "internalType": "address",
          "name": "spender",
          "type": "address"
        }
      ],
      "name": "allowance",
      "outputs": [
        {
          "internalType": "uint256",
          "name": "",
          "type": "uint256"
        }
      ],
      "stateMutability": "view",
      "type": "function"
    },
    {
      "inputs": [
        {
          "internalType": "address",
          "name": "spender",
          "type": "address"
        },
        {
          "internalType": "uint256",
          "name": "value",
          "type": "uint256"
        }
      ],
      "name": "approve",
      "outputs": [
        {
          "internalType": "bool",
          "name": "",
          "type": "bool"
        }
      ],
      "stateMutability": "nonpayable",
      "type": "function"
    },
    {
      "inputs": [
        {
          "internalType": "address",
          "name": "account",
          "type": "address"
        }
      ],
      "name": "balanceOf",
      "outputs": [
        {
          "internalType": "uint256",
          "name": "",
          "type": "uint256"
        }
      ],
      "stateMutability": "view",
      "type": "function"
    },
    {
      "inputs": [],
      "name": "decimals",
      "outputs": [
        {
          "internalType": "uint8",
          "name": "",
          "type": "uint8"
        }
      ],
      "stateMutability": "view",
      "type": "function"
    },
    {
      "inputs": [
        {
          "internalType": "uint256",
          "name": "",
          "type": "uint256"
        }
      ],
      "name": "energyBatches",
      "outputs": [
        {
          "internalType": "address",
          "name": "producer",
          "type": "address"
        },
        {
          "internalType": "int256",
          "name": "latitude",
          "type": "int256"
        },
        {
          "internalType": "int256",
          "name": "longitude",
          "type": "int256"
        },
        {
          "internalType": "uint256",
          "name": "timestamp",
          "type": "uint256"
        },
        {
          "internalType": "uint256",
          "name": "price",
          "type": "uint256"
        }
      ],
      "stateMutability": "view",
      "type": "function"
    },
    {
      "inputs": [],
      "name": "name",
      "outputs": [
        {
          "internalType": "string",
          "name": "",
          "type": "string"
        }
      ],
      "stateMutability": "view",
      "type": "function"
    },
    {
      "inputs": [],
      "name": "priceHistory",
      "outputs": [
        {
          "internalType": "uint256",
          "name": "lastIndex",
          "type": "uint256"
        }
      ],
      "stateMutability": "view",
      "type": "function"
    },
    {
      "inputs": [
        {
          "internalType": "address",
          "name": "",
          "type": "address"
        },
        {
          "internalType": "uint256",
          "name": "",
          "type": "uint256"
        }
      ],
      "name": "producerBatches",
      "outputs": [
        {
          "internalType": "uint256",
          "name": "",
          "type": "uint256"
        }
      ],
      "stateMutability": "view",
      "type": "function"
    },
    {
      "inputs": [],
      "name": "symbol",
      "outputs": [
        {
          "internalType": "string",
          "name": "",
          "type": "string"
        }
      ],
      "stateMutability": "view",
      "type": "function"
    },
    {
      "inputs": [],
      "name": "totalSupply",
      "outputs": [
        {
          "internalType": "uint256",
          "name": "",
          "type": "uint256"
        }
      ],
      "stateMutability": "view",
      "type": "function"
    },
    {
      "inputs": [
        {
          "internalType": "address",
          "name": "to",
          "type": "address"
        },
        {
          "internalType": "uint256",
          "name": "value",
          "type": "uint256"
        }
      ],
      "name": "transfer",
      "outputs": [
        {
          "internalType": "bool",
          "name": "",
          "type": "bool"
        }
      ],
      "stateMutability": "nonpayable",
      "type": "function"
    },
    {
      "inputs": [
        {
          "internalType": "address",
          "name": "from",
          "type": "address"
        },
        {
          "internalType": "address",
          "name": "to",
          "type": "address"
        },
        {
          "internalType": "uint256",
          "name": "value",
          "type": "uint256"
        }
      ],
      "name": "transferFrom",
      "outputs": [
        {
          "internalType": "bool",
          "name": "",
          "type": "bool"
        }
      ],
      "stateMutability": "nonpayable",
      "type": "function"
    },
    {
      "inputs": [],
      "name": "userRegistry",
      "outputs": [
        {
          "internalType": "contract UserRegistry",
          "name": "",
          "type": "address"
        }
      ],
      "stateMutability": "view",
      "type": "function"
    },
    {
      "inputs": [
        {
          "internalType": "uint256",
          "name": "amount",
          "type": "uint256"
        },
        {
          "internalType": "uint256",
          "name": "price",
          "type": "uint256"
        }
      ],
      "name": "mint",
      "outputs": [],
      "stateMutability": "nonpayable",
      "type": "function"
    },
    {
      "inputs": [
        {
          "internalType": "address",
          "name": "recipient",
          "type": "address"
        },
        {
          "internalType": "uint256",
          "name": "batchId",
          "type": "uint256"
        },
        {
          "internalType": "uint256",
          "name": "amount",
          "type": "uint256"
        }
      ],
      "name": "transferWithBatch",
      "outputs": [
        {
          "internalType": "bool",
          "name": "",
          "type": "bool"
        }
      ],
      "stateMutability": "nonpayable",
      "type": "function"
    },
    {
      "inputs": [
        {
          "internalType": "uint256",
          "name": "batchId",
          "type": "uint256"
        }
      ],
      "name": "getBatch",
      "outputs": [
        {
          "internalType": "address",
          "name": "producer",
          "type": "address"
        },
        {
          "internalType": "int256",
          "name": "latitude",
          "type": "int256"
        },
        {
          "internalType": "int256",
          "name": "longitude",
          "type": "int256"
        },
        {
          "internalType": "uint256",
          "name": "timestamp",
          "type": "uint256"
        },
        {
          "internalType": "uint256",
          "name": "price",
          "type": "uint256"
        }
      ],
      "stateMutability": "view",
      "type": "function"
    },
    {
      "inputs": [
        {
          "internalType": "address",
          "name": "producer",
          "type": "address"
        }
      ],
      "name": "getBatchesByProducer",
      "outputs": [
        {
          "internalType": "uint256[]",
          "name": "",
          "type": "uint256[]"
        }
      ],
      "stateMutability": "view",
      "type": "function"
    },
    {
      "inputs": [],
      "name": "getTotalBatches",
      "outputs": [
        {
          "internalType": "uint256",
          "name": "",
          "type": "uint256"
        }
      ],
      "stateMutability": "view",
      "type": "function"
    },
    {
      "inputs": [
        {
          "internalType": "uint256",
          "name": "duration",
          "type": "uint256"
        }
      ],
      "name": "getAveragePrice",
      "outputs": [
        {
          "internalType": "uint256",
          "name": "",
          "type": "uint256"
        }
      ],
      "stateMutability": "view",
      "type": "function"
    },
    {
      "inputs": [],
      "name": "getPriceHistory",
      "outputs": [
        {
          "internalType": "uint256[]",
          "name": "prices",
          "type": "uint256[]"
        },
        {
          "internalType": "uint256[]",
          "name": "timestamps",
          "type": "uint256[]"
        }
      ],
      "stateMutability": "view",
      "type": "function"
    }
  ],
  "bytecode": "0x60a06040523480156200001157600080fd5b506040516200307d3803806200307d833981810160405281019062000037919062000323565b6040518060400160405280601081526020017f477265656e456e65726779546f6b656e000000000000000000000000000000008152506040518060400160405280600381526020017f47455400000000000000000000000000000000000000000000000000000000008152508160039081620000b49190620005cf565b508060049081620000c69190620005cf565b505050600073ffffffffffffffffffffffffffffffffffffffff168173ffffffffffffffffffffffffffffffffffffffff16036200013b576040517f08c379a0000000000000000000000000000000000000000000000000000000008152600401620001329062000717565b60405180910390fd5b8073ffffffffffffffffffffffffffffffffffffffff1660808173ffffffffffffffffffffffffffffffffffffffff1681525050606467ffffffffffffffff8111156200018d576200018c62000360565b5b604051908082528060200260200182016040528015620001bc5781602001602082028036833780820191505090505b5060076000019080519060200190620001d792919062000248565b50606467ffffffffffffffff811115620001f657620001f562000360565b5b604051908082528060200260200182016040528015620002255781602001602082028036833780820191505090505b50600760010190805190602001906200024092919062000248565b505062000739565b82805482825590600052602060002090810192821562000287579160200282015b828111156200028657825182559160200191906001019062000269565b5b5090506200029691906200029a565b5090565b5b80821115620002b55760008160009055506001016200029b565b5090565b600080fd5b600073ffffffffffffffffffffffffffffffffffffffff82169050919050565b6000620002eb82620002be565b9050919050565b620002fd81620002de565b81146200030957600080fd5b50565b6000815190506200031d81620002f2565b92915050565b6000602082840312156200033c576200033b620002b9565b5b60006200034c848285016200030c565b91505092915050565b600081519050919050565b7f4e487b7100000000000000000000000000000000000000000000000000000000600052604160045260246000fd5b7f4e487b7100000000000000000000000000000000000000000000000000000000600052602260045260246000fd5b60006002820490506001821680620003d757607f821691505b602082108103620003ed57620003ec6200038f565b5b50919050565b60008190508160005260206000209050919050565b60006020601f8301049050919050565b600082821b905092915050565b600060088302620004577fffffffffffffffffffffffffffffffffffffffffffffffffffffffffffffffff8262000418565b62000463868362000418565b95508019841693508086168417925050509392505050565b6000819050919050565b6000819050919050565b6000620004b0620004aa620004a4846200047b565b62000485565b6200047b565b9050919050565b6000819050919050565b620004cc836200048f565b620004e4620004db82620004b7565b84845462000425565b825550505050565b600090565b620004fb620004ec565b62000508818484620004c1565b505050565b5b81811015620005305762000524600082620004f1565b6001810190506200050e565b5050565b601f8211156200057f576200054981620003f3565b620005548462000408565b8101602085101562000564578190505b6200057c620005738562000408565b8301826200050d565b50505b505050565b600082821c905092915050565b6000620005a46000198460080262000584565b1980831691505092915050565b6000620005bf838362000591565b9150826002028217905092915050565b620005da8262000355565b67ffffffffffffffff811115620005f657620005f562000360565b5b620006028254620003be565b6200060f82828562000534565b600060209050601f83116001811462000647576000841562000632578287015190505b6200063e8582620005b1565b865550620006ae565b601f1984166200065786620003f3565b60005b8281101562000681578489015182556001820191506020850194506020810190506200065a565b86831015620006a157848901516200069d601f89168262000591565b8355505b6001600288020188555050505b505050505050565b600082825260208201905092915050565b7f496e76616c696420757365722072656769737472792061646472657373000000600082015250565b6000620006ff601d83620006b6565b91506200070c82620006c7565b602082019050919050565b600060208201905081810360008301526200073281620006f0565b9050919050565b60805161290c62000771600039600081816105c6015281816106a1015281816107b001528181610df60152611057015261290c6000f3fe608060405234801561001057600080fd5b50600436106101375760003560e01c806349eb1134116100b8578063929f03791161007c578063929f0379146103a657806395d89b41146103c5578063a9059cbb146103e3578063bb39a04314610413578063dd62ed3e14610431578063e561dddc1461046157610137565b806349eb1134146102c05780635ac44282146102f05780635c7460d614610324578063619d0d6c1461034257806370a082311461037657610137565b806323b872dd116100ff57806323b872dd146101f4578063289945b014610224578063313ce567146102425780633c7237ba14610260578063411d009b1461029057610137565b806306fdde031461013c578063095ea7b31461015a57806318160ddd1461018a5780631b2ef1ca146101a85780631b62a420146101c4575b600080fd5b61014461047f565b6040516101519190611aa1565b60405180910390f35b610174600480360381019061016f9190611b6b565b610511565b6040516101819190611bc6565b60405180910390f35b610192610534565b60405161019f9190611bf0565b60405180910390f35b6101c260048036038101906101bd9190611c0b565b61053e565b005b6101de60048036038101906101d99190611c4b565b610a89565b6040516101eb9190611bc6565b60405180910390f35b61020e60048036038101906102099190611c9e565b610c71565b60405161021b9190611bc6565b60405180910390f35b61022c610ca0565b6040516102399190611bf0565b60405180910390f35b61024a610cac565b6040516102579190611d0d565b60405180910390f35b61027a60048036038101906102759190611d28565b610cb5565b6040516102879190611bf0565b60405180910390f35b6102aa60048036038101906102a59190611d55565b610df2565b6040516102b79190611e40565b60405180910390f35b6102da60048036038101906102d59190611b6b565b610f62565b6040516102e79190611bf0565b60405180910390f35b61030a60048036038101906103059190611d28565b610f93565b60405161031b959493929190611e8a565b60405180910390f35b61032c611055565b6040516103399190611f3c565b60405180910390f35b61035c60048036038101906103579190611d28565b611079565b60405161036d959493929190611e8a565b60405180910390f35b610390600480360381019061038b9190611d55565b6110df565b60405161039d9190611bf0565b60405180910390f35b6103ae611127565b6040516103bc929190611f57565b60405180910390f35b6103cd6112a2565b6040516103da9190611aa1565b60405180910390f35b6103fd60048036038101906103f89190611b6b565b611334565b60405161040a9190611bc6565b60405180910390f35b61041b611357565b6040516104289190611bf0565b60405180910390f35b61044b60048036038101906104469190611f8e565b61135c565b6040516104589190611bf0565b60405180910390f35b6104696113e3565b6040516104769190611bf0565b60405180910390f35b60606003805461048e90611ffd565b80601f01602080910402602001604051908101604052809291908181526020018280546104ba90611ffd565b80156105075780601f106104dc57610100808354040283529160200191610507565b820191906000526020600020905b8154815290600101906020018083116104ea57829003601f168201915b5050505050905090565b60008061051c6113f0565b90506105298185856113f8565b600191505092915050565b6000600254905090565b60008211610581576040517f08c379a00000000000000000000000000000000000000000000000000000000081526004016105789061207a565b60405180910390fd5b600081116105c4576040517f08c379a00000000000000000000000000000000000000000000000000000000081526004016105bb906120e6565b60405180910390fd5b7f000000000000000000000000000000000000000000000000000000000000000073ffffffffffffffffffffffffffffffffffffffff1663c3c5a547336040518263ffffffff1660e01b815260040161061d9190612106565b602060405180830381865afa15801561063a573d6000803e3d6000fd5b505050506040513d601f19601f8201168201806040525081019061065e919061214d565b61069d576040517f08c379a0000000000000000000000000000000000000000000000000000000008152600401610694906121c6565b60405180910390fd5b60007f000000000000000000000000000000000000000000000000000000000000000073ffffffffffffffffffffffffffffffffffffffff16636f77926b336040518263ffffffff1660e01b81526004016106f89190612106565b600060405180830381865afa158015610715573d6000803e3d6000fd5b505050506040513d6000823e3d601f19601f8201168201806040525081019061073e919061234d565b50935050505080610784576040517f08c379a000000000000000000000000000000000000000000000000000000000815260040161077b90612430565b60405180910390fd5b6107a133670de0b6b3a76400008561079c919061247f565b61140a565b600060058054905090506000807f000000000000000000000000000000000000000000000000000000000000000073ffffffffffffffffffffffffffffffffffffffff16636f77926b336040518263ffffffff1660e01b81526004016108079190612106565b600060405180830381865afa158015610824573d6000803e3d6000fd5b505050506040513d6000823e3d601f19601f8201168201806040525081019061084d919061234d565b5050925092505060056040518060a001604052803373ffffffffffffffffffffffffffffffffffffffff16815260200184815260200183815260200142815260200187815250908060018154018082558091505060019003906000526020600020906005020160009091909190915060008201518160000160006101000a81548173ffffffffffffffffffffffffffffffffffffffff021916908373ffffffffffffffffffffffffffffffffffffffff160217905550602082015181600101556040820151816002015560608201518160030155608082015181600401555050600660003373ffffffffffffffffffffffffffffffffffffffff1673ffffffffffffffffffffffffffffffffffffffff168152602001908152602001600020839080600181540180825580915050600190039060005260206000200160009091909190915055846007600001600760020154815481106109b0576109af6124c1565b5b9060005260206000200181905550426007600101600760020154815481106109db576109da6124c1565b5b9060005260206000200181905550606460016007600201546109fd91906124f0565b610a079190612553565b600760020181905550827f388730014081607267ae4604af434f797fc9bd7aace4300eb7898c6b38448fcb3387604051610a42929190612584565b60405180910390a27f66cbca4f3c64fecf1dcb9ce094abcf7f68c3450a1d4e3a8e917dd621edb4ebe085604051610a799190611bf0565b60405180910390a1505050505050565b6000808211610acd576040517f08c379a0000000000000000000000000000000000000000000000000000000008152600401610ac49061207a565b60405180910390fd5b600073ffffffffffffffffffffffffffffffffffffffff168473ffffffffffffffffffffffffffffffffffffffff1603610b3c576040517f08c379a0000000000000000000000000000000000000000000000000000000008152600401610b33906125f9565b60405180910390fd5b6005805490508310610b83576040517f08c379a0000000000000000000000000000000000000000000000000000000008152600401610b7a90612665565b60405180910390fd5b670de0b6b3a764000082610b97919061247f565b610ba0336110df565b1015610be1576040517f08c379a0000000000000000000000000000000000000000000000000000000008152600401610bd8906126d1565b60405180910390fd5b610bff3385670de0b6b3a764000085610bfa919061247f565b61148c565b8373ffffffffffffffffffffffffffffffffffffffff163373ffffffffffffffffffffffffffffffffffffffff167fb6c08c8ea72df098694ebc4bdb1501c45e85b881d65b7b1133600a49b7a08c1e8585604051610c5e9291906126f1565b60405180910390a3600190509392505050565b600080610c7c6113f0565b9050610c89858285611580565b610c9485858561148c565b60019150509392505050565b60078060020154905081565b60006012905090565b6000808211610cf9576040517f08c379a0000000000000000000000000000000000000000000000000000000008152600401610cf090612766565b60405180910390fd5b600080600042905060005b6064811015610dcb57600060646001836064600760020154610d2691906124f0565b610d309190612786565b610d3a9190612786565b610d449190612553565b90508660076001018281548110610d5e57610d5d6124c1565b5b906000526020600020015484610d749190612786565b11610db75760076000018181548110610d9057610d8f6124c1565b5b906000526020600020015485610da691906124f0565b94508380610db3906127ba565b9450505b508080610dc3906127ba565b915050610d04565b5060008211610ddb576000610de8565b8183610de79190612802565b5b9350505050919050565b60607f000000000000000000000000000000000000000000000000000000000000000073ffffffffffffffffffffffffffffffffffffffff1663c3c5a547836040518263ffffffff1660e01b8152600401610e4d9190612106565b602060405180830381865afa158015610e6a573d6000803e3d6000fd5b505050506040513d601f19601f82011682018060405250810190610e8e919061214d565b610ecd576040517f08c379a0000000000000000000000000000000000000000000000000000000008152600401610ec49061287f565b60405180910390fd5b600660008373ffffffffffffffffffffffffffffffffffffffff1673ffffffffffffffffffffffffffffffffffffffff168152602001908152602001600020805480602002602001604051908101604052809291908181526020018280548015610f5657602002820191906000526020600020905b815481526020019060010190808311610f42575b50505050509050919050565b60066020528160005260406000208181548110610f7e57600080fd5b90600052602060002001600091509150505481565b60008060008060006005805490508610610fe2576040517f08c379a0000000000000000000000000000000000000000000000000000000008152600401610fd990612665565b60405180910390fd5b600060058781548110610ff857610ff76124c1565b5b906000526020600020906005020190508060000160009054906101000a900473ffffffffffffffffffffffffffffffffffffffff168160010154826002015483600301548460040154955095509550955095505091939590929450565b7f000000000000000000000000000000000000000000000000000000000000000081565b6005818154811061108957600080fd5b90600052602060002090600502016000915090508060000160009054906101000a900473ffffffffffffffffffffffffffffffffffffffff16908060010154908060020154908060030154908060040154905085565b60008060008373ffffffffffffffffffffffffffffffffffffffff1673ffffffffffffffffffffffffffffffffffffffff168152602001908152602001600020549050919050565b606080606467ffffffffffffffff811115611145576111446121f0565b5b6040519080825280602002602001820160405280156111735781602001602082028036833780820191505090505b509150606467ffffffffffffffff811115611191576111906121f0565b5b6040519080825280602002602001820160405280156111bf5781602001602082028036833780820191505090505b50905060005b606481101561129d576000606460018360646007600201546111e791906124f0565b6111f19190612786565b6111fb9190612786565b6112059190612553565b90506007600001818154811061121e5761121d6124c1565b5b906000526020600020015484838151811061123c5761123b6124c1565b5b6020026020010181815250506007600101818154811061125f5761125e6124c1565b5b906000526020600020015483838151811061127d5761127c6124c1565b5b602002602001018181525050508080611295906127ba565b9150506111c5565b509091565b6060600480546112b190611ffd565b80601f01602080910402602001604051908101604052809291908181526020018280546112dd90611ffd565b801561132a5780601f106112ff5761010080835404028352916020019161132a565b820191906000526020600020905b81548152906001019060200180831161130d57829003601f168201915b5050505050905090565b60008061133f6113f0565b905061134c81858561148c565b600191505092915050565b606481565b6000600160008473ffffffffffffffffffffffffffffffffffffffff1673ffffffffffffffffffffffffffffffffffffffff16815260200190815260200160002060008373ffffffffffffffffffffffffffffffffffffffff1673ffffffffffffffffffffffffffffffffffffffff16815260200190815260200160002054905092915050565b6000600580549050905090565b600033905090565b6114058383836001611615565b505050565b600073ffffffffffffffffffffffffffffffffffffffff168273ffffffffffffffffffffffffffffffffffffffff160361147c5760006040517fec442f050000000000000000000000000000000000000000000000000000000081526004016114739190612106565b60405180910390fd5b611488600083836117ec565b5050565b600073ffffffffffffffffffffffffffffffffffffffff168373ffffffffffffffffffffffffffffffffffffffff16036114fe5760006040517f96c6fd1e0000000000000000000000000000000000000000000000000000000081526004016114f59190612106565b60405180910390fd5b600073ffffffffffffffffffffffffffffffffffffffff168273ffffffffffffffffffffffffffffffffffffffff16036115705760006040517fec442f050000000000000000000000000000000000000000000000000000000081526004016115679190612106565b60405180910390fd5b61157b8383836117ec565b505050565b600061158c848461135c565b90507fffffffffffffffffffffffffffffffffffffffffffffffffffffffffffffffff81101561160f57818110156115ff578281836040517ffb8f41b20000000000000000000000000000000000000000000000000000000081526004016115f69392919061289f565b60405180910390fd5b61160e84848484036000611615565b5b50505050565b600073ffffffffffffffffffffffffffffffffffffffff168473ffffffffffffffffffffffffffffffffffffffff16036116875760006040517fe602df0500000000000000000000000000000000000000000000000000000000815260040161167e9190612106565b60405180910390fd5b600073ffffffffffffffffffffffffffffffffffffffff168373ffffffffffffffffffffffffffffffffffffffff16036116f95760006040517f94280d620000000000000000000000000000000000000000000000000000000081526004016116f09190612106565b60405180910390fd5b81600160008673ffffffffffffffffffffffffffffffffffffffff1673ffffffffffffffffffffffffffffffffffffffff16815260200190815260200160002060008573ffffffffffffffffffffffffffffffffffffffff1673ffffffffffffffffffffffffffffffffffffffff1681526020019081526020016000208190555080156117e6578273ffffffffffffffffffffffffffffffffffffffff168473ffffffffffffffffffffffffffffffffffffffff167f8c5be1e5ebec7d5bd14f71427d1e84f3dd0314c0f7b2291e5b200ac8c7c3b925846040516117dd9190611bf0565b60405180910390a35b50505050565b600073ffffffffffffffffffffffffffffffffffffffff168373ffffffffffffffffffffffffffffffffffffffff160361183e57806002600082825461183291906124f0565b92505081905550611911565b60008060008573ffffffffffffffffffffffffffffffffffffffff1673ffffffffffffffffffffffffffffffffffffffff168152602001908152602001600020549050818110156118ca578381836040517fe450d38c0000000000000000000000000000000000000000000000000000000081526004016118c19392919061289f565b60405180910390fd5b8181036000808673ffffffffffffffffffffffffffffffffffffffff1673ffffffffffffffffffffffffffffffffffffffff16815260200190815260200160002081905550505b600073ffffffffffffffffffffffffffffffffffffffff168273ffffffffffffffffffffffffffffffffffffffff160361195a57806002600082825403925050819055506119a7565b806000808473ffffffffffffffffffffffffffffffffffffffff1673ffffffffffffffffffffffffffffffffffffffff168152602001908152602001600020600082825401925050819055505b8173ffffffffffffffffffffffffffffffffffffffff168373ffffffffffffffffffffffffffffffffffffffff167fddf252ad1be2c89b69c2b068fc378daa952ba7f163c4a11628f55a4df523b3ef83604051611a049190611bf0565b60405180910390a3505050565b600081519050919050565b600082825260208201905092915050565b60005b83811015611a4b578082015181840152602081019050611a30565b60008484015250505050565b6000601f19601f8301169050919050565b6000611a7382611a11565b611a7d8185611a1c565b9350611a8d818560208601611a2d565b611a9681611a57565b840191505092915050565b60006020820190508181036000830152611abb8184611a68565b905092915050565b6000604051905090565b600080fd5b600080fd5b600073ffffffffffffffffffffffffffffffffffffffff82169050919050565b6000611b0282611ad7565b9050919050565b611b1281611af7565b8114611b1d57600080fd5b50565b600081359050611b2f81611b09565b92915050565b6000819050919050565b611b4881611b35565b8114611b5357600080fd5b50565b600081359050611b6581611b3f565b92915050565b60008060408385031215611b8257611b81611acd565b5b6000611b9085828601611b20565b9250506020611ba185828601611b56565b9150509250929050565b60008115159050919050565b611bc081611bab565b82525050565b6000602082019050611bdb6000830184611bb7565b92915050565b611bea81611b35565b82525050565b6000602082019050611c056000830184611be1565b92915050565b60008060408385031215611c2257611c21611acd565b5b6000611c3085828601611b56565b9250506020611c4185828601611b56565b9150509250929050565b600080600060608486031215611c6457611c63611acd565b5b6000611c7286828701611b20565b9350506020611c8386828701611b56565b9250506040611c9486828701611b56565b9150509250925092565b600080600060608486031215611cb757611cb6611acd565b5b6000611cc586828701611b20565b9350506020611cd686828701611b20565b9250506040611ce786828701611b56565b9150509250925092565b600060ff82169050919050565b611d0781611cf1565b82525050565b6000602082019050611d226000830184611cfe565b92915050565b600060208284031215611d3e57611d3d611acd565b5b6000611d4c84828501611b56565b91505092915050565b600060208284031215611d6b57611d6a611acd565b5b6000611d7984828501611b20565b91505092915050565b600081519050919050565b600082825260208201905092915050565b6000819050602082019050919050565b611db781611b35565b82525050565b6000611dc98383611dae565b60208301905092915050565b6000602082019050919050565b6000611ded82611d82565b611df78185611d8d565b9350611e0283611d9e565b8060005b83811015611e33578151611e1a8882611dbd565b9750611e2583611dd5565b925050600181019050611e06565b5085935050505092915050565b60006020820190508181036000830152611e5a8184611de2565b905092915050565b611e6b81611af7565b82525050565b6000819050919050565b611e8481611e71565b82525050565b600060a082019050611e9f6000830188611e62565b611eac6020830187611e7b565b611eb96040830186611e7b565b611ec66060830185611be1565b611ed36080830184611be1565b9695505050505050565b6000819050919050565b6000611f02611efd611ef884611ad7565b611edd565b611ad7565b9050919050565b6000611f1482611ee7565b9050919050565b6000611f2682611f09565b9050919050565b611f3681611f1b565b82525050565b6000602082019050611f516000830184611f2d565b92915050565b60006040820190508181036000830152611f718185611de2565b90508181036020830152611f858184611de2565b90509392505050565b60008060408385031215611fa557611fa4611acd565b5b6000611fb385828601611b20565b9250506020611fc485828601611b20565b9150509250929050565b7f4e487b7100000000000000000000000000000000000000000000000000000000600052602260045260246000fd5b6000600282049050600182168061201557607f821691505b60208210810361202857612027611fce565b5b50919050565b7f416d6f756e74206d7573742062652067726561746572207468616e2030000000600082015250565b6000612064601d83611a1c565b915061206f8261202e565b602082019050919050565b6000602082019050818103600083015261209381612057565b9050919050565b7f5072696365206d7573742062652067726561746572207468616e203000000000600082015250565b60006120d0601c83611a1c565b91506120db8261209a565b602082019050919050565b600060208201905081810360008301526120ff816120c3565b9050919050565b600060208201905061211b6000830184611e62565b92915050565b61212a81611bab565b811461213557600080fd5b50565b60008151905061214781612121565b92915050565b60006020828403121561216357612162611acd565b5b600061217184828501612138565b91505092915050565b7f55736572206e6f74207265676973746572656400000000000000000000000000600082015250565b60006121b0601383611a1c565b91506121bb8261217a565b602082019050919050565b600060208201905081810360008301526121df816121a3565b9050919050565b600080fd5b600080fd5b7f4e487b7100000000000000000000000000000000000000000000000000000000600052604160045260246000fd5b61222882611a57565b810181811067ffffffffffffffff82111715612247576122466121f0565b5b80604052505050565b600061225a611ac3565b9050612266828261221f565b919050565b600067ffffffffffffffff821115612286576122856121f0565b5b61228f82611a57565b9050602081019050919050565b60006122af6122aa8461226b565b612250565b9050828152602081018484840111156122cb576122ca6121eb565b5b6122d6848285611a2d565b509392505050565b600082601f8301126122f3576122f26121e6565b5b815161230384826020860161229c565b91505092915050565b61231581611e71565b811461232057600080fd5b50565b6000815190506123328161230c565b92915050565b60008151905061234781611b3f565b92915050565b600080600080600060a0868803121561236957612368611acd565b5b600086015167ffffffffffffffff81111561238757612386611ad2565b5b612393888289016122de565b95505060206123a488828901612323565b94505060406123b588828901612323565b93505060606123c688828901612138565b92505060806123d788828901612338565b9150509295509295909350565b7f4e6f7420612070726f6475636572000000000000000000000000000000000000600082015250565b600061241a600e83611a1c565b9150612425826123e4565b602082019050919050565b600060208201905081810360008301526124498161240d565b9050919050565b7f4e487b7100000000000000000000000000000000000000000000000000000000600052601160045260246000fd5b600061248a82611b35565b915061249583611b35565b92508282026124a381611b35565b915082820484148315176124ba576124b9612450565b5b5092915050565b7f4e487b7100000000000000000000000000000000000000000000000000000000600052603260045260246000fd5b60006124fb82611b35565b915061250683611b35565b925082820190508082111561251e5761251d612450565b5b92915050565b7f4e487b7100000000000000000000000000000000000000000000000000000000600052601260045260246000fd5b600061255e82611b35565b915061256983611b35565b92508261257957612578612524565b5b828206905092915050565b60006040820190506125996000830185611e62565b6125a66020830184611be1565b9392505050565b7f496e76616c696420726563697069656e74206164647265737300000000000000600082015250565b60006125e3601983611a1c565b91506125ee826125ad565b602082019050919050565b60006020820190508181036000830152612612816125d6565b9050919050565b7f496e76616c696420626174636800000000000000000000000000000000000000600082015250565b600061264f600d83611a1c565b915061265a82612619565b602082019050919050565b6000602082019050818103600083015261267e81612642565b9050919050565b7f496e73756666696369656e742062616c616e6365000000000000000000000000600082015250565b60006126bb601483611a1c565b91506126c682612685565b602082019050919050565b600060208201905081810360008301526126ea816126ae565b9050919050565b60006040820190506127066000830185611be1565b6127136020830184611be1565b9392505050565b7f4475726174696f6e206d7573742062652067726561746572207468616e203000600082015250565b6000612750601f83611a1c565b915061275b8261271a565b602082019050919050565b6000602082019050818103600083015261277f81612743565b9050919050565b600061279182611b35565b915061279c83611b35565b92508282039050818111156127b4576127b3612450565b5b92915050565b60006127c582611b35565b91507fffffffffffffffffffffffffffffffffffffffffffffffffffffffffffffffff82036127f7576127f6612450565b5b600182019050919050565b600061280d82611b35565b915061281883611b35565b92508261282857612827612524565b5b828204905092915050565b7f50726f6475636572206e6f742072656769737465726564000000000000000000600082015250565b6000612869601783611a1c565b915061287482612833565b602082019050919050565b600060208201905081810360008301526128988161285c565b9050919050565b60006060820190506128b46000830186611e62565b6128c16020830185611be1565b6128ce6040830184611be1565b94935050505056fea2646970667358221220d3b33dc0418007f91f9d36c24740f9df8826a63574f8b02316806432954ec1c664736f6c63430008140033",
  "immutableReferences": {
    "5867": [
      {
        "length": 32,
        "start": 1478
      },
      {
        "length": 32,
        "start": 1697
      },
      {
        "length": 32,
        "start": 1968
      },
      {
        "length": 32,
        "start": 3574
      },
      {
        "length": 32,
        "start": 4183
      }
    ]
  },
  "source": "// SPDX-License-Identifier: MIT\r\npragma solidity ^0.8.20;\r\n\r\nimport \"@openzeppelin/contracts/token/ERC20/ERC20.sol\";\r\nimport \"./UserRegistry.sol\";\r\n\r\ncontract EnergyToken is ERC20 {\r\n    struct EnergyBatch {\r\n        address producer;\r\n        int256 latitude;\r\n        int256 longitude;\r\n        uint256 timestamp;\r\n        uint256 price;  // Price in wei\r\n    }\r\n    \r\n    struct PriceHistory {\r\n        uint256[] prices;\r\n        uint256[] timestamps;\r\n        uint256 lastIndex;\r\n    }\r\n    \r\n    UserRegistry public immutable userRegistry;\r\n    EnergyBatch[] public energyBatches;\r\n    mapping(address => uint256[]) public producerBatches;\r\n    PriceHistory public priceHistory;\r\n    uint256 public constant MAX_PRICE_HISTORY = 100;  // Keep last 100 prices\r\n    \r\n    event NewBatch(uint256 indexed batchId, address producer, uint256 price);\r\n    event EnergyTransferred(address indexed from, address indexed to, uint256 batchId, uint256 amount);\r\n    event PriceUpdated(uint256 newPrice);\r\n\r\n    constructor(address _userRegistry) ERC20(\"GreenEnergyToken\", \"GET\") {\r\n        require(_userRegistry != address(0), \"Invalid user registry address\");\r\n        userRegistry = UserRegistry(_userRegistry);\r\n        priceHistory.prices = new uint256[](MAX_PRICE_HISTORY);\r\n        priceHistory.timestamps = new uint256[](MAX_PRICE_HISTORY);\r\n    }\r\n\r\n    function mint(\r\n        uint256 amount,\r\n        uint256 price\r\n    ) external {\r\n        require(amount > 0, \"Amount must be greater than 0\");\r\n        require(price > 0, \"Price must be greater than 0\");\r\n        require(userRegistry.isRegistered(msg.sender), \"User not registered\");\r\n        \r\n        (, , , bool isProducer, ) = userRegistry.getUser(msg.sender);\r\n        require(isProducer, \"Not a producer\");\r\n        \r\n        _mint(msg.sender, amount * 1e18);\r\n        uint256 batchId = energyBatches.length;\r\n        \r\n        (, int256 lat, int256 long, , ) = userRegistry.getUser(msg.sender);\r\n        energyBatches.push(EnergyBatch(msg.sender, lat, long, block.timestamp, price));\r\n        producerBatches[msg.sender].push(batchId);\r\n        \r\n        // Update price history\r\n        priceHistory.prices[priceHistory.lastIndex] = price;\r\n        priceHistory.timestamps[priceHistory.lastIndex] = block.timestamp;\r\n        priceHistory.lastIndex = (priceHistory.lastIndex + 1) % MAX_PRICE_HISTORY;\r\n        \r\n        emit NewBatch(batchId, msg.sender, price);\r\n        emit PriceUpdated(price);\r\n    }\r\n\r\n    function transferWithBatch(\r\n        address recipient,\r\n        uint256 batchId,\r\n        uint256 amount\r\n    ) external returns (bool) {\r\n        require(amount > 0, \"Amount must be greater than 0\");\r\n        require(recipient != address(0), \"Invalid recipient address\");\r\n        require(batchId < energyBatches.length, \"Invalid batch\");\r\n        require(\r\n            balanceOf(msg.sender) >= amount * 1e18, \r\n            \"Insufficient balance\"\r\n        );\r\n        \r\n        _transfer(msg.sender, recipient, amount * 1e18);\r\n        emit EnergyTransferred(msg.sender, recipient, batchId, amount);\r\n        return true;\r\n    }\r\n\r\n    function getBatch(uint256 batchId) external view returns (\r\n        address producer,\r\n        int256 latitude,\r\n        int256 longitude,\r\n        uint256 timestamp,\r\n        uint256 price\r\n    ) {\r\n        require(batchId < energyBatches.length, \"Invalid batch\");\r\n        EnergyBatch storage batch = energyBatches[batchId];\r\n        return (\r\n            batch.producer,\r\n            batch.latitude,\r\n            batch.longitude,\r\n            batch.timestamp,\r\n            batch.price\r\n        );\r\n    }\r\n\r\n    function getBatchesByProducer(address producer) external view returns (uint256[] memory) {\r\n        require(userRegistry.isRegistered(producer), \"Producer not registered\");\r\n        return producerBatches[producer];\r\n    }\r\n\r\n    function getTotalBatches() external view returns (uint256) {\r\n        return energyBatches.length;\r\n    }\r\n\r\n    function getAveragePrice(uint256 duration) external view returns (uint256) {\r\n        require(duration > 0, \"Duration must be greater than 0\");\r\n        uint256 sum = 0;\r\n        uint256 count = 0;\r\n        uint256 currentTime = block.timestamp;\r\n        \r\n        for (uint256 i = 0; i < MAX_PRICE_HISTORY; i++) {\r\n            uint256 index = (priceHistory.lastIndex + MAX_PRICE_HISTORY - i - 1) % MAX_PRICE_HISTORY;\r\n            if (currentTime - priceHistory.timestamps[index] <= duration) {\r\n                sum += priceHistory.prices[index];\r\n                count++;\r\n            }\r\n        }\r\n        \r\n        return count > 0 ? sum / count : 0;\r\n    }\r\n\r\n    function getPriceHistory() external view returns (\r\n        uint256[] memory prices,\r\n        uint256[] memory timestamps\r\n    ) {\r\n        prices = new uint256[](MAX_PRICE_HISTORY);\r\n        timestamps = new uint256[](MAX_PRICE_HISTORY);\r\n        \r\n        for (uint256 i = 0; i < MAX_PRICE_HISTORY; i++) {\r\n            uint256 index = (priceHistory.lastIndex + MAX_PRICE_HISTORY - i - 1) % MAX_PRICE_HISTORY;\r\n            prices[i] = priceHistory.prices[index];\r\n            timestamps[i] = priceHistory.timestamps[index];\r\n        }\r\n        \r\n        return (prices, timestamps);\r\n    }\r\n}",
  "sourcePath": "C:\\Users\\user\\Desktop\\LightemPCD\\lightem\\contracts\\EnergyToken.sol",
  "compiler": {
    "name": "solc",
    "version": "0.8.20+commit.a1b79de6.Emscripten.clang"
  },
  "schemaVersion": "3.4.16",
  "updatedAt": "2025-05-09T19:20:49.628Z",
  "devdoc": {
    "errors": {
      "ERC20InsufficientAllowance(address,uint256,uint256)": [
        {
          "details": "Indicates a failure with the `spender`s `allowance`. Used in transfers.",
          "params": {
            "allowance": "Amount of tokens a `spender` is allowed to operate with.",
            "needed": "Minimum amount required to perform a transfer.",
            "spender": "Address that may be allowed to operate on tokens without being their owner."
          }
        }
      ],
      "ERC20InsufficientBalance(address,uint256,uint256)": [
        {
          "details": "Indicates an error related to the current `balance` of a `sender`. Used in transfers.",
          "params": {
            "balance": "Current balance for the interacting account.",
            "needed": "Minimum amount required to perform a transfer.",
            "sender": "Address whose tokens are being transferred."
          }
        }
      ],
      "ERC20InvalidApprover(address)": [
        {
          "details": "Indicates a failure with the `approver` of a token to be approved. Used in approvals.",
          "params": {
            "approver": "Address initiating an approval operation."
          }
        }
      ],
      "ERC20InvalidReceiver(address)": [
        {
          "details": "Indicates a failure with the token `receiver`. Used in transfers.",
          "params": {
            "receiver": "Address to which tokens are being transferred."
          }
        }
      ],
      "ERC20InvalidSender(address)": [
        {
          "details": "Indicates a failure with the token `sender`. Used in transfers.",
          "params": {
            "sender": "Address whose tokens are being transferred."
          }
        }
      ],
      "ERC20InvalidSpender(address)": [
        {
          "details": "Indicates a failure with the `spender` to be approved. Used in approvals.",
          "params": {
            "spender": "Address that may be allowed to operate on tokens without being their owner."
          }
        }
      ]
    },
    "events": {
      "Approval(address,address,uint256)": {
        "details": "Emitted when the allowance of a `spender` for an `owner` is set by a call to {approve}. `value` is the new allowance."
      },
      "Transfer(address,address,uint256)": {
        "details": "Emitted when `value` tokens are moved from one account (`from`) to another (`to`). Note that `value` may be zero."
      }
    },
    "kind": "dev",
    "methods": {
      "allowance(address,address)": {
        "details": "See {IERC20-allowance}."
      },
      "approve(address,uint256)": {
        "details": "See {IERC20-approve}. NOTE: If `value` is the maximum `uint256`, the allowance is not updated on `transferFrom`. This is semantically equivalent to an infinite approval. Requirements: - `spender` cannot be the zero address."
      },
      "balanceOf(address)": {
        "details": "See {IERC20-balanceOf}."
      },
      "decimals()": {
        "details": "Returns the number of decimals used to get its user representation. For example, if `decimals` equals `2`, a balance of `505` tokens should be displayed to a user as `5.05` (`505 / 10 ** 2`). Tokens usually opt for a value of 18, imitating the relationship between Ether and Wei. This is the default value returned by this function, unless it's overridden. NOTE: This information is only used for _display_ purposes: it in no way affects any of the arithmetic of the contract, including {IERC20-balanceOf} and {IERC20-transfer}."
      },
      "name()": {
        "details": "Returns the name of the token."
      },
      "symbol()": {
        "details": "Returns the symbol of the token, usually a shorter version of the name."
      },
      "totalSupply()": {
        "details": "See {IERC20-totalSupply}."
      },
      "transfer(address,uint256)": {
        "details": "See {IERC20-transfer}. Requirements: - `to` cannot be the zero address. - the caller must have a balance of at least `value`."
      },
      "transferFrom(address,address,uint256)": {
        "details": "See {IERC20-transferFrom}. Skips emitting an {Approval} event indicating an allowance update. This is not required by the ERC. See {xref-ERC20-_approve-address-address-uint256-bool-}[_approve]. NOTE: Does not update the allowance if the current allowance is the maximum `uint256`. Requirements: - `from` and `to` cannot be the zero address. - `from` must have a balance of at least `value`. - the caller must have allowance for ``from``'s tokens of at least `value`."
      }
    },
    "version": 1
  },
  "userdoc": {
    "kind": "user",
    "methods": {},
    "version": 1
  }
}