{
  "contractName": "FixedPriceMarket",
  "abi": [
    {
      "inputs": [
        {
          "internalType": "address",
          "name": "_energyToken",
          "type": "address"
        }
      ],
      "stateMutability": "nonpayable",
      "type": "constructor"
    },
    {
      "inputs": [],
      "name": "ReentrancyGuardReentrantCall",
      "type": "error"
    },
    {
      "anonymous": false,
      "inputs": [
        {
          "indexed": true,
          "internalType": "uint256",
          "name": "listingId",
          "type": "uint256"
        }
      ],
      "name": "ListingCancelled",
      "type": "event"
    },
    {
      "anonymous": false,
      "inputs": [
        {
          "indexed": true,
          "internalType": "uint256",
          "name": "listingId",
          "type": "uint256"
        },
        {
          "indexed": false,
          "internalType": "address",
          "name": "seller",
          "type": "address"
        },
        {
          "indexed": false,
          "internalType": "uint256",
          "name": "amount",
          "type": "uint256"
        },
        {
          "indexed": false,
          "internalType": "uint256",
          "name": "basePrice",
          "type": "uint256"
        }
      ],
      "name": "ListingCreated",
      "type": "event"
    },
    {
      "anonymous": false,
      "inputs": [
        {
          "indexed": true,
          "internalType": "uint256",
          "name": "listingId",
          "type": "uint256"
        },
        {
          "indexed": false,
          "internalType": "address",
          "name": "buyer",
          "type": "address"
        },
        {
          "indexed": false,
          "internalType": "address",
          "name": "seller",
          "type": "address"
        },
        {
          "indexed": false,
          "internalType": "uint256",
          "name": "amount",
          "type": "uint256"
        },
        {
          "indexed": false,
          "internalType": "uint256",
          "name": "totalPrice",
          "type": "uint256"
        }
      ],
      "name": "ListingPurchased",
      "type": "event"
    },
    {
      "inputs": [],
      "name": "DISTANCE_FEE_MULTIPLIER",
      "outputs": [
        {
          "internalType": "uint256",
          "name": "",
          "type": "uint256"
        }
      ],
      "stateMutability": "view",
      "type": "function"
    },
    {
      "inputs": [],
      "name": "PLATFORM_FEE_PERCENTAGE",
      "outputs": [
        {
          "internalType": "uint256",
          "name": "",
          "type": "uint256"
        }
      ],
      "stateMutability": "view",
      "type": "function"
    },
    {
      "inputs": [],
      "name": "energyToken",
      "outputs": [
        {
          "internalType": "contract EnergyToken",
          "name": "",
          "type": "address"
        }
      ],
      "stateMutability": "view",
      "type": "function"
    },
    {
      "inputs": [],
      "name": "listingCount",
      "outputs": [
        {
          "internalType": "uint256",
          "name": "",
          "type": "uint256"
        }
      ],
      "stateMutability": "view",
      "type": "function"
    },
    {
      "inputs": [
        {
          "internalType": "uint256",
          "name": "",
          "type": "uint256"
        }
      ],
      "name": "listings",
      "outputs": [
        {
          "internalType": "address",
          "name": "seller",
          "type": "address"
        },
        {
          "internalType": "uint256",
          "name": "amount",
          "type": "uint256"
        },
        {
          "internalType": "uint256",
          "name": "basePrice",
          "type": "uint256"
        },
        {
          "internalType": "bool",
          "name": "isActive",
          "type": "bool"
        }
      ],
      "stateMutability": "view",
      "type": "function"
    },
    {
      "inputs": [
        {
          "internalType": "address",
          "name": "",
          "type": "address"
        },
        {
          "internalType": "uint256",
          "name": "",
          "type": "uint256"
        }
      ],
      "name": "sellerListings",
      "outputs": [
        {
          "internalType": "uint256",
          "name": "",
          "type": "uint256"
        }
      ],
      "stateMutability": "view",
      "type": "function"
    },
    {
      "inputs": [],
      "name": "userRegistry",
      "outputs": [
        {
          "internalType": "contract UserRegistry",
          "name": "",
          "type": "address"
        }
      ],
      "stateMutability": "view",
      "type": "function"
    },
    {
      "inputs": [
        {
          "internalType": "uint256",
          "name": "amount",
          "type": "uint256"
        },
        {
          "internalType": "uint256",
          "name": "basePrice",
          "type": "uint256"
        }
      ],
      "name": "createListing",
      "outputs": [],
      "stateMutability": "nonpayable",
      "type": "function"
    },
    {
      "inputs": [
        {
          "internalType": "uint256",
          "name": "listingId",
          "type": "uint256"
        },
        {
          "internalType": "address",
          "name": "buyer",
          "type": "address"
        }
      ],
      "name": "calculatePrice",
      "outputs": [
        {
          "components": [
            {
              "internalType": "uint256",
              "name": "basePrice",
              "type": "uint256"
            },
            {
              "internalType": "uint256",
              "name": "distanceFee",
              "type": "uint256"
            },
            {
              "internalType": "uint256",
              "name": "platformFee",
              "type": "uint256"
            },
            {
              "internalType": "uint256",
              "name": "totalPrice",
              "type": "uint256"
            }
          ],
          "internalType": "struct FixedPriceMarket.PriceBreakdown",
          "name": "",
          "type": "tuple"
        }
      ],
      "stateMutability": "view",
      "type": "function"
    },
    {
      "inputs": [
        {
          "internalType": "uint256",
          "name": "listingId",
          "type": "uint256"
        }
      ],
      "name": "purchaseListing",
      "outputs": [],
      "stateMutability": "payable",
      "type": "function"
    },
    {
      "inputs": [
        {
          "internalType": "uint256",
          "name": "listingId",
          "type": "uint256"
        }
      ],
      "name": "cancelListing",
      "outputs": [],
      "stateMutability": "nonpayable",
      "type": "function"
    },
    {
      "inputs": [],
      "name": "getActiveListings",
      "outputs": [
        {
          "internalType": "uint256[]",
          "name": "listingIds",
          "type": "uint256[]"
        },
        {
          "internalType": "address[]",
          "name": "sellers",
          "type": "address[]"
        },
        {
          "internalType": "uint256[]",
          "name": "amounts",
          "type": "uint256[]"
        },
        {
          "internalType": "uint256[]",
          "name": "basePrices",
          "type": "uint256[]"
        }
      ],
      "stateMutability": "view",
      "type": "function"
    },
    {
      "inputs": [
        {
          "internalType": "address",
          "name": "seller",
          "type": "address"
        }
      ],
      "name": "getListingsBySeller",
      "outputs": [
        {
          "internalType": "uint256[]",
          "name": "",
          "type": "uint256[]"
        }
      ],
      "stateMutability": "view",
      "type": "function"
    },
    {
      "inputs": [],
      "name": "getSuggestedPrice",
      "outputs": [
        {
          "internalType": "uint256",
          "name": "",
          "type": "uint256"
        }
      ],
      "stateMutability": "view",
      "type": "function"
    }
  ],
  "bytecode": "0x60806040523480156200001157600080fd5b5060405162002901380380620029018339818101604052810190620000379190620001c5565b600160008190555080600160006101000a81548173ffffffffffffffffffffffffffffffffffffffff021916908373ffffffffffffffffffffffffffffffffffffffff160217905550600160009054906101000a900473ffffffffffffffffffffffffffffffffffffffff1673ffffffffffffffffffffffffffffffffffffffff16635c7460d66040518163ffffffff1660e01b8152600401602060405180830381865afa158015620000ee573d6000803e3d6000fd5b505050506040513d601f19601f820116820180604052508101906200011491906200023c565b600260006101000a81548173ffffffffffffffffffffffffffffffffffffffff021916908373ffffffffffffffffffffffffffffffffffffffff160217905550506200026e565b600080fd5b600073ffffffffffffffffffffffffffffffffffffffff82169050919050565b60006200018d8262000160565b9050919050565b6200019f8162000180565b8114620001ab57600080fd5b50565b600081519050620001bf8162000194565b92915050565b600060208284031215620001de57620001dd6200015b565b5b6000620001ee84828501620001ae565b91505092915050565b6000620002048262000180565b9050919050565b6200021681620001f7565b81146200022257600080fd5b50565b60008151905062000236816200020b565b92915050565b6000602082840312156200025557620002546200015b565b5b6000620002658482850162000225565b91505092915050565b612683806200027e6000396000f3fe6080604052600436106100dd5760003560e01c8063a79123a91161007f578063ce01fffd11610059578063ce01fffd146102a4578063d8cba251146102cf578063de74e57b1461030c578063e83be7161461034c576100dd565b8063a79123a914610213578063a9b07c261461023c578063c2d4f85114610267576100dd565b8063305a67a8116100bb578063305a67a8146101665780634ec7fb811461018f5780635c7460d6146101ba57806387c35bc0146101e5576100dd565b8063054564f0146100e2578063155482321461011f578063169d5a7d1461014a575b600080fd5b3480156100ee57600080fd5b50610109600480360381019061010491906116e2565b610377565b6040516101169190611731565b60405180910390f35b34801561012b57600080fd5b506101346103a8565b6040516101419190611731565b60405180910390f35b610164600480360381019061015f919061174c565b6103ad565b005b34801561017257600080fd5b5061018d6004803603810190610188919061174c565b6108ee565b005b34801561019b57600080fd5b506101a4610a46565b6040516101b191906117d8565b60405180910390f35b3480156101c657600080fd5b506101cf610a6c565b6040516101dc9190611814565b60405180910390f35b3480156101f157600080fd5b506101fa610a92565b60405161020a94939291906119ab565b60405180910390f35b34801561021f57600080fd5b5061023a60048036038101906102359190611a0c565b610d90565b005b34801561024857600080fd5b50610251611269565b60405161025e9190611731565b60405180910390f35b34801561027357600080fd5b5061028e60048036038101906102899190611a4c565b61126f565b60405161029b9190611ae1565b60405180910390f35b3480156102b057600080fd5b506102b9611423565b6040516102c69190611731565b60405180910390f35b3480156102db57600080fd5b506102f660048036038101906102f19190611afc565b611428565b6040516103039190611b29565b60405180910390f35b34801561031857600080fd5b50610333600480360381019061032e919061174c565b6114bf565b6040516103439493929190611b75565b60405180910390f35b34801561035857600080fd5b5061036161151c565b60405161036e9190611731565b60405180910390f35b6005602052816000526040600020818154811061039357600080fd5b90600052602060002001600091509150505481565b606481565b6103b56115c2565b600260009054906101000a900473ffffffffffffffffffffffffffffffffffffffff1673ffffffffffffffffffffffffffffffffffffffff1663c3c5a547336040518263ffffffff1660e01b81526004016104109190611bba565b602060405180830381865afa15801561042d573d6000803e3d6000fd5b505050506040513d601f19601f820116820180604052508101906104519190611c01565b610490576040517f08c379a000000000000000000000000000000000000000000000000000000000815260040161048790611c8b565b60405180910390fd5b60006004600083815260200190815260200160002090508060030160009054906101000a900460ff166104f8576040517f08c379a00000000000000000000000000000000000000000000000000000000081526004016104ef90611cf7565b60405180910390fd5b6000610504833361126f565b9050806060015134101561054d576040517f08c379a000000000000000000000000000000000000000000000000000000000815260040161054490611d63565b60405180910390fd5b600160009054906101000a900473ffffffffffffffffffffffffffffffffffffffff1673ffffffffffffffffffffffffffffffffffffffff16631b62a420338585600101546040518463ffffffff1660e01b81526004016105b093929190611d83565b6020604051808303816000875af11580156105cf573d6000803e3d6000fd5b505050506040513d601f19601f820116820180604052508101906105f39190611c01565b610632576040517f08c379a000000000000000000000000000000000000000000000000000000000815260040161062990611e06565b60405180910390fd5b60008260000160009054906101000a900473ffffffffffffffffffffffffffffffffffffffff1673ffffffffffffffffffffffffffffffffffffffff16826040015183606001516106839190611e55565b60405161068f90611eba565b60006040518083038185875af1925050503d80600081146106cc576040519150601f19603f3d011682016040523d82523d6000602084013e6106d1565b606091505b5050905080610715576040517f08c379a000000000000000000000000000000000000000000000000000000000815260040161070c90611f1b565b60405180910390fd5b60008360030160006101000a81548160ff021916908315150217905550600260009054906101000a900473ffffffffffffffffffffffffffffffffffffffff1673ffffffffffffffffffffffffffffffffffffffff1663b99f3db93360016040518363ffffffff1660e01b8152600401610790929190611f3b565b600060405180830381600087803b1580156107aa57600080fd5b505af11580156107be573d6000803e3d6000fd5b50505050600260009054906101000a900473ffffffffffffffffffffffffffffffffffffffff1673ffffffffffffffffffffffffffffffffffffffff1663b99f3db98460000160009054906101000a900473ffffffffffffffffffffffffffffffffffffffff1660016040518363ffffffff1660e01b8152600401610844929190611f3b565b600060405180830381600087803b15801561085e57600080fd5b505af1158015610872573d6000803e3d6000fd5b50505050837f67806fb1f9a1d5258c8ae3101868dc1bbd114cb2c1829b37dbdd88d64cf17d82338560000160009054906101000a900473ffffffffffffffffffffffffffffffffffffffff16866001015486606001516040516108d89493929190611f64565b60405180910390a25050506108eb611608565b50565b6108f66115c2565b60006004600083815260200190815260200160002090503373ffffffffffffffffffffffffffffffffffffffff168160000160009054906101000a900473ffffffffffffffffffffffffffffffffffffffff1673ffffffffffffffffffffffffffffffffffffffff161461099f576040517f08c379a000000000000000000000000000000000000000000000000000000000815260040161099690611ff5565b60405180910390fd5b8060030160009054906101000a900460ff166109f0576040517f08c379a00000000000000000000000000000000000000000000000000000000081526004016109e790611cf7565b60405180910390fd5b60008160030160006101000a81548160ff021916908315150217905550817f411aee90354c51b1b04cd563fcab2617142a9d50da19232d888547c8a1b7fd8a60405160405180910390a250610a43611608565b50565b600160009054906101000a900473ffffffffffffffffffffffffffffffffffffffff1681565b600260009054906101000a900473ffffffffffffffffffffffffffffffffffffffff1681565b6060806060806000805b600354811015610af1576004600082815260200190815260200160002060030160009054906101000a900460ff1615610ade578180610ada90612015565b9250505b8080610ae990612015565b915050610a9c565b508067ffffffffffffffff811115610b0c57610b0b61205d565b5b604051908082528060200260200182016040528015610b3a5781602001602082028036833780820191505090505b5094508067ffffffffffffffff811115610b5757610b5661205d565b5b604051908082528060200260200182016040528015610b855781602001602082028036833780820191505090505b5093508067ffffffffffffffff811115610ba257610ba161205d565b5b604051908082528060200260200182016040528015610bd05781602001602082028036833780820191505090505b5092508067ffffffffffffffff811115610bed57610bec61205d565b5b604051908082528060200260200182016040528015610c1b5781602001602082028036833780820191505090505b5091506000805b600354811015610d87576004600082815260200190815260200160002060030160009054906101000a900460ff1615610d745780878381518110610c6957610c6861208c565b5b6020026020010181815250506004600082815260200190815260200160002060000160009054906101000a900473ffffffffffffffffffffffffffffffffffffffff16868381518110610cbf57610cbe61208c565b5b602002602001019073ffffffffffffffffffffffffffffffffffffffff16908173ffffffffffffffffffffffffffffffffffffffff16815250506004600082815260200190815260200160002060010154858381518110610d2357610d2261208c565b5b6020026020010181815250506004600082815260200190815260200160002060020154848381518110610d5957610d5861208c565b5b6020026020010181815250508180610d7090612015565b9250505b8080610d7f90612015565b915050610c22565b50505090919293565b610d986115c2565b60008211610ddb576040517f08c379a0000000000000000000000000000000000000000000000000000000008152600401610dd290612107565b60405180910390fd5b60008111610e1e576040517f08c379a0000000000000000000000000000000000000000000000000000000008152600401610e1590612199565b60405180910390fd5b600260009054906101000a900473ffffffffffffffffffffffffffffffffffffffff1673ffffffffffffffffffffffffffffffffffffffff1663c3c5a547336040518263ffffffff1660e01b8152600401610e799190611bba565b602060405180830381865afa158015610e96573d6000803e3d6000fd5b505050506040513d601f19601f82011682018060405250810190610eba9190611c01565b610ef9576040517f08c379a0000000000000000000000000000000000000000000000000000000008152600401610ef090611c8b565b60405180910390fd5b6000600260009054906101000a900473ffffffffffffffffffffffffffffffffffffffff1673ffffffffffffffffffffffffffffffffffffffff16636f77926b336040518263ffffffff1660e01b8152600401610f569190611bba565b600060405180830381865afa158015610f73573d6000803e3d6000fd5b505050506040513d6000823e3d601f19601f82011682018060405250810190610f9c9190612336565b50935050505080610fe2576040517f08c379a0000000000000000000000000000000000000000000000000000000008152600401610fd99061243f565b60405180910390fd5b670de0b6b3a764000083610ff6919061245f565b600160009054906101000a900473ffffffffffffffffffffffffffffffffffffffff1673ffffffffffffffffffffffffffffffffffffffff166370a08231336040518263ffffffff1660e01b81526004016110519190611bba565b602060405180830381865afa15801561106e573d6000803e3d6000fd5b505050506040513d601f19601f8201168201806040525081019061109291906124a1565b10156110d3576040517f08c379a00000000000000000000000000000000000000000000000000000000081526004016110ca9061251a565b60405180910390fd5b6000600360008154809291906110e890612015565b91905055905060405180608001604052803373ffffffffffffffffffffffffffffffffffffffff168152602001858152602001848152602001600115158152506004600083815260200190815260200160002060008201518160000160006101000a81548173ffffffffffffffffffffffffffffffffffffffff021916908373ffffffffffffffffffffffffffffffffffffffff160217905550602082015181600101556040820151816002015560608201518160030160006101000a81548160ff021916908315150217905550905050600560003373ffffffffffffffffffffffffffffffffffffffff1673ffffffffffffffffffffffffffffffffffffffff168152602001908152602001600020819080600181540180825580915050600190039060005260206000200160009091909190915055807f12dc294b81a709d694b1337a350a12a00076c19a77a25aab67a5f0c07e0f164d33868660405161125393929190611d83565b60405180910390a25050611265611608565b5050565b60035481565b611277611612565b60006004600085815260200190815260200160002090508060030160009054906101000a900460ff166112df576040517f08c379a00000000000000000000000000000000000000000000000000000000081526004016112d690611cf7565b60405180910390fd5b6000600260009054906101000a900473ffffffffffffffffffffffffffffffffffffffff1673ffffffffffffffffffffffffffffffffffffffff16632d430a0b8360000160009054906101000a900473ffffffffffffffffffffffffffffffffffffffff16866040518363ffffffff1660e01b815260040161136292919061253a565b602060405180830381865afa15801561137f573d6000803e3d6000fd5b505050506040513d601f19601f820116820180604052508101906113a391906124a1565b905060006064826113b4919061245f565b90506000612710606485600201546113cc919061245f565b6113d69190612592565b90506040518060800160405280856002015481526020018381526020018281526020018284876002015461140a91906125c3565b61141491906125c3565b81525094505050505092915050565b606481565b6060600560008373ffffffffffffffffffffffffffffffffffffffff1673ffffffffffffffffffffffffffffffffffffffff1681526020019081526020016000208054806020026020016040519081016040528092919081815260200182805480156114b357602002820191906000526020600020905b81548152602001906001019080831161149f575b50505050509050919050565b60046020528060005260406000206000915090508060000160009054906101000a900473ffffffffffffffffffffffffffffffffffffffff16908060010154908060020154908060030160009054906101000a900460ff16905084565b6000600160009054906101000a900473ffffffffffffffffffffffffffffffffffffffff1673ffffffffffffffffffffffffffffffffffffffff16633c7237ba620151806040518263ffffffff1660e01b815260040161157c9190612632565b602060405180830381865afa158015611599573d6000803e3d6000fd5b505050506040513d601f19601f820116820180604052508101906115bd91906124a1565b905090565b6002600054036115fe576040517f3ee5aeb500000000000000000000000000000000000000000000000000000000815260040160405180910390fd5b6002600081905550565b6001600081905550565b6040518060800160405280600081526020016000815260200160008152602001600081525090565b6000604051905090565b600080fd5b600080fd5b600073ffffffffffffffffffffffffffffffffffffffff82169050919050565b60006116798261164e565b9050919050565b6116898161166e565b811461169457600080fd5b50565b6000813590506116a681611680565b92915050565b6000819050919050565b6116bf816116ac565b81146116ca57600080fd5b50565b6000813590506116dc816116b6565b92915050565b600080604083850312156116f9576116f8611644565b5b600061170785828601611697565b9250506020611718858286016116cd565b9150509250929050565b61172b816116ac565b82525050565b60006020820190506117466000830184611722565b92915050565b60006020828403121561176257611761611644565b5b6000611770848285016116cd565b91505092915050565b6000819050919050565b600061179e6117996117948461164e565b611779565b61164e565b9050919050565b60006117b082611783565b9050919050565b60006117c2826117a5565b9050919050565b6117d2816117b7565b82525050565b60006020820190506117ed60008301846117c9565b92915050565b60006117fe826117a5565b9050919050565b61180e816117f3565b82525050565b60006020820190506118296000830184611805565b92915050565b600081519050919050565b600082825260208201905092915050565b6000819050602082019050919050565b611864816116ac565b82525050565b6000611876838361185b565b60208301905092915050565b6000602082019050919050565b600061189a8261182f565b6118a4818561183a565b93506118af8361184b565b8060005b838110156118e05781516118c7888261186a565b97506118d283611882565b9250506001810190506118b3565b5085935050505092915050565b600081519050919050565b600082825260208201905092915050565b6000819050602082019050919050565b6119228161166e565b82525050565b60006119348383611919565b60208301905092915050565b6000602082019050919050565b6000611958826118ed565b61196281856118f8565b935061196d83611909565b8060005b8381101561199e5781516119858882611928565b975061199083611940565b925050600181019050611971565b5085935050505092915050565b600060808201905081810360008301526119c5818761188f565b905081810360208301526119d9818661194d565b905081810360408301526119ed818561188f565b90508181036060830152611a01818461188f565b905095945050505050565b60008060408385031215611a2357611a22611644565b5b6000611a31858286016116cd565b9250506020611a42858286016116cd565b9150509250929050565b60008060408385031215611a6357611a62611644565b5b6000611a71858286016116cd565b9250506020611a8285828601611697565b9150509250929050565b608082016000820151611aa2600085018261185b565b506020820151611ab5602085018261185b565b506040820151611ac8604085018261185b565b506060820151611adb606085018261185b565b50505050565b6000608082019050611af66000830184611a8c565b92915050565b600060208284031215611b1257611b11611644565b5b6000611b2084828501611697565b91505092915050565b60006020820190508181036000830152611b43818461188f565b905092915050565b611b548161166e565b82525050565b60008115159050919050565b611b6f81611b5a565b82525050565b6000608082019050611b8a6000830187611b4b565b611b976020830186611722565b611ba46040830185611722565b611bb16060830184611b66565b95945050505050565b6000602082019050611bcf6000830184611b4b565b92915050565b611bde81611b5a565b8114611be957600080fd5b50565b600081519050611bfb81611bd5565b92915050565b600060208284031215611c1757611c16611644565b5b6000611c2584828501611bec565b91505092915050565b600082825260208201905092915050565b7f55736572206e6f74207265676973746572656400000000000000000000000000600082015250565b6000611c75601383611c2e565b9150611c8082611c3f565b602082019050919050565b60006020820190508181036000830152611ca481611c68565b9050919050565b7f4c697374696e67206973206e6f74206163746976650000000000000000000000600082015250565b6000611ce1601583611c2e565b9150611cec82611cab565b602082019050919050565b60006020820190508181036000830152611d1081611cd4565b9050919050565b7f496e73756666696369656e74207061796d656e74000000000000000000000000600082015250565b6000611d4d601483611c2e565b9150611d5882611d17565b602082019050919050565b60006020820190508181036000830152611d7c81611d40565b9050919050565b6000606082019050611d986000830186611b4b565b611da56020830185611722565b611db26040830184611722565b949350505050565b7f546f6b656e207472616e73666572206661696c65640000000000000000000000600082015250565b6000611df0601583611c2e565b9150611dfb82611dba565b602082019050919050565b60006020820190508181036000830152611e1f81611de3565b9050919050565b7f4e487b7100000000000000000000000000000000000000000000000000000000600052601160045260246000fd5b6000611e60826116ac565b9150611e6b836116ac565b9250828203905081811115611e8357611e82611e26565b5b92915050565b600081905092915050565b50565b6000611ea4600083611e89565b9150611eaf82611e94565b600082019050919050565b6000611ec582611e97565b9150819050919050565b7f5061796d656e74207472616e73666572206661696c6564000000000000000000600082015250565b6000611f05601783611c2e565b9150611f1082611ecf565b602082019050919050565b60006020820190508181036000830152611f3481611ef8565b9050919050565b6000604082019050611f506000830185611b4b565b611f5d6020830184611b66565b9392505050565b6000608082019050611f796000830187611b4b565b611f866020830186611b4b565b611f936040830185611722565b611fa06060830184611722565b95945050505050565b7f4e6f74207468652073656c6c6572000000000000000000000000000000000000600082015250565b6000611fdf600e83611c2e565b9150611fea82611fa9565b602082019050919050565b6000602082019050818103600083015261200e81611fd2565b9050919050565b6000612020826116ac565b91507fffffffffffffffffffffffffffffffffffffffffffffffffffffffffffffffff820361205257612051611e26565b5b600182019050919050565b7f4e487b7100000000000000000000000000000000000000000000000000000000600052604160045260246000fd5b7f4e487b7100000000000000000000000000000000000000000000000000000000600052603260045260246000fd5b7f416d6f756e74206d7573742062652067726561746572207468616e2030000000600082015250565b60006120f1601d83611c2e565b91506120fc826120bb565b602082019050919050565b60006020820190508181036000830152612120816120e4565b9050919050565b7f42617365207072696365206d7573742062652067726561746572207468616e2060008201527f3000000000000000000000000000000000000000000000000000000000000000602082015250565b6000612183602183611c2e565b915061218e82612127565b604082019050919050565b600060208201905081810360008301526121b281612176565b9050919050565b600080fd5b600080fd5b6000601f19601f8301169050919050565b6121dd826121c3565b810181811067ffffffffffffffff821117156121fc576121fb61205d565b5b80604052505050565b600061220f61163a565b905061221b82826121d4565b919050565b600067ffffffffffffffff82111561223b5761223a61205d565b5b612244826121c3565b9050602081019050919050565b60005b8381101561226f578082015181840152602081019050612254565b60008484015250505050565b600061228e61228984612220565b612205565b9050828152602081018484840111156122aa576122a96121be565b5b6122b5848285612251565b509392505050565b600082601f8301126122d2576122d16121b9565b5b81516122e284826020860161227b565b91505092915050565b6000819050919050565b6122fe816122eb565b811461230957600080fd5b50565b60008151905061231b816122f5565b92915050565b600081519050612330816116b6565b92915050565b600080600080600060a0868803121561235257612351611644565b5b600086015167ffffffffffffffff8111156123705761236f611649565b5b61237c888289016122bd565b955050602061238d8882890161230c565b945050604061239e8882890161230c565b93505060606123af88828901611bec565b92505060806123c088828901612321565b9150509295509295909350565b7f4f6e6c792070726f6475636572732063616e20637265617465206c697374696e60008201527f6773000000000000000000000000000000000000000000000000000000000000602082015250565b6000612429602283611c2e565b9150612434826123cd565b604082019050919050565b600060208201905081810360008301526124588161241c565b9050919050565b600061246a826116ac565b9150612475836116ac565b9250828202612483816116ac565b9150828204841483151761249a57612499611e26565b5b5092915050565b6000602082840312156124b7576124b6611644565b5b60006124c584828501612321565b91505092915050565b7f496e73756666696369656e7420746f6b656e2062616c616e6365000000000000600082015250565b6000612504601a83611c2e565b915061250f826124ce565b602082019050919050565b60006020820190508181036000830152612533816124f7565b9050919050565b600060408201905061254f6000830185611b4b565b61255c6020830184611b4b565b9392505050565b7f4e487b7100000000000000000000000000000000000000000000000000000000600052601260045260246000fd5b600061259d826116ac565b91506125a8836116ac565b9250826125b8576125b7612563565b5b828204905092915050565b60006125ce826116ac565b91506125d9836116ac565b92508282019050808211156125f1576125f0611e26565b5b92915050565b6000819050919050565b600061261c612617612612846125f7565b611779565b6116ac565b9050919050565b61262c81612601565b82525050565b60006020820190506126476000830184612623565b9291505056fea26469706673582212205f4521572a5ef9586f4e78b8cf0dcba047941e872faad75b5bd92f3a7daccf3064736f6c63430008140033",
  "immutableReferences": {},
  "source": "// SPDX-License-Identifier: MIT\r\npragma solidity ^0.8.20;\r\n\r\nimport \"@openzeppelin/contracts/utils/ReentrancyGuard.sol\";\r\nimport \"./EnergyToken.sol\";\r\nimport \"./UserRegistry.sol\";\r\n\r\ncontract FixedPriceMarket is ReentrancyGuard {\r\n    struct Listing {\r\n        address seller;\r\n        uint256 amount;\r\n        uint256 basePrice;  // in wei\r\n        bool isActive;\r\n    }\r\n    \r\n    struct PriceBreakdown {\r\n        uint256 basePrice;\r\n        uint256 distanceFee;\r\n        uint256 platformFee;\r\n        uint256 totalPrice;\r\n    }\r\n    \r\n    EnergyToken public energyToken;\r\n    UserRegistry public userRegistry;\r\n    \r\n    uint256 public listingCount;\r\n    mapping(uint256 => Listing) public listings;\r\n    mapping(address => uint256[]) public sellerListings;\r\n    \r\n    uint256 public constant PLATFORM_FEE_PERCENTAGE = 100;  // 1% (in basis points)\r\n    uint256 public constant DISTANCE_FEE_MULTIPLIER = 100;  // 0.01 wei per unit of distance\r\n    \r\n    event ListingCreated(uint256 indexed listingId, address seller, uint256 amount, uint256 basePrice);\r\n    event ListingPurchased(uint256 indexed listingId, address buyer, address seller, uint256 amount, uint256 totalPrice);\r\n    event ListingCancelled(uint256 indexed listingId);\r\n\r\n    constructor(address _energyToken) {\r\n        energyToken = EnergyToken(_energyToken);\r\n        userRegistry = UserRegistry(energyToken.userRegistry());\r\n    }\r\n\r\n    function createListing(uint256 amount, uint256 basePrice) external nonReentrant {\r\n        require(amount > 0, \"Amount must be greater than 0\");\r\n        require(basePrice > 0, \"Base price must be greater than 0\");\r\n        require(userRegistry.isRegistered(msg.sender), \"User not registered\");\r\n        \r\n        (, , , bool isProducer, ) = userRegistry.getUser(msg.sender);\r\n        require(isProducer, \"Only producers can create listings\");\r\n        \r\n        require(\r\n            energyToken.balanceOf(msg.sender) >= amount * 1e18,\r\n            \"Insufficient token balance\"\r\n        );\r\n        \r\n        uint256 listingId = listingCount++;\r\n        listings[listingId] = Listing({\r\n            seller: msg.sender,\r\n            amount: amount,\r\n            basePrice: basePrice,\r\n            isActive: true\r\n        });\r\n        \r\n        sellerListings[msg.sender].push(listingId);\r\n        emit ListingCreated(listingId, msg.sender, amount, basePrice);\r\n    }\r\n\r\n    function calculatePrice(\r\n        uint256 listingId,\r\n        address buyer\r\n    ) public view returns (PriceBreakdown memory) {\r\n        Listing storage listing = listings[listingId];\r\n        require(listing.isActive, \"Listing is not active\");\r\n        \r\n        uint256 distance = userRegistry.calculateDistance(listing.seller, buyer);\r\n        uint256 distanceFee = distance * DISTANCE_FEE_MULTIPLIER;\r\n        uint256 platformFee = (listing.basePrice * PLATFORM_FEE_PERCENTAGE) / 10000;\r\n        \r\n        return PriceBreakdown({\r\n            basePrice: listing.basePrice,\r\n            distanceFee: distanceFee,\r\n            platformFee: platformFee,\r\n            totalPrice: listing.basePrice + distanceFee + platformFee\r\n        });\r\n    }\r\n\r\n    function purchaseListing(uint256 listingId) external payable nonReentrant {\r\n        require(userRegistry.isRegistered(msg.sender), \"User not registered\");\r\n        \r\n        Listing storage listing = listings[listingId];\r\n        require(listing.isActive, \"Listing is not active\");\r\n        \r\n        PriceBreakdown memory price = calculatePrice(listingId, msg.sender);\r\n        require(msg.value >= price.totalPrice, \"Insufficient payment\");\r\n        \r\n        // Transfer tokens\r\n        require(\r\n            energyToken.transferWithBatch(\r\n                msg.sender,\r\n                listingId,\r\n                listing.amount\r\n            ),\r\n            \"Token transfer failed\"\r\n        );\r\n        \r\n        // Transfer payment to seller (minus platform fee)\r\n        (bool success, ) = listing.seller.call{value: price.totalPrice - price.platformFee}(\"\");\r\n        require(success, \"Payment transfer failed\");\r\n        \r\n        // Update listing\r\n        listing.isActive = false;\r\n        \r\n        // Record transaction\r\n        userRegistry.recordTransaction(msg.sender, true);\r\n        userRegistry.recordTransaction(listing.seller, true);\r\n        \r\n        emit ListingPurchased(listingId, msg.sender, listing.seller, listing.amount, price.totalPrice);\r\n    }\r\n\r\n    function cancelListing(uint256 listingId) external nonReentrant {\r\n        Listing storage listing = listings[listingId];\r\n        require(listing.seller == msg.sender, \"Not the seller\");\r\n        require(listing.isActive, \"Listing is not active\");\r\n        \r\n        listing.isActive = false;\r\n        emit ListingCancelled(listingId);\r\n    }\r\n\r\n    function getActiveListings() external view returns (\r\n        uint256[] memory listingIds,\r\n        address[] memory sellers,\r\n        uint256[] memory amounts,\r\n        uint256[] memory basePrices\r\n    ) {\r\n        uint256 activeCount = 0;\r\n        \r\n        // Count active listings\r\n        for (uint256 i = 0; i < listingCount; i++) {\r\n            if (listings[i].isActive) {\r\n                activeCount++;\r\n            }\r\n        }\r\n        \r\n        // Initialize arrays\r\n        listingIds = new uint256[](activeCount);\r\n        sellers = new address[](activeCount);\r\n        amounts = new uint256[](activeCount);\r\n        basePrices = new uint256[](activeCount);\r\n        \r\n        // Fill arrays\r\n        uint256 currentIndex = 0;\r\n        for (uint256 i = 0; i < listingCount; i++) {\r\n            if (listings[i].isActive) {\r\n                listingIds[currentIndex] = i;\r\n                sellers[currentIndex] = listings[i].seller;\r\n                amounts[currentIndex] = listings[i].amount;\r\n                basePrices[currentIndex] = listings[i].basePrice;\r\n                currentIndex++;\r\n            }\r\n        }\r\n        \r\n        return (listingIds, sellers, amounts, basePrices);\r\n    }\r\n\r\n    function getListingsBySeller(address seller) external view returns (uint256[] memory) {\r\n        return sellerListings[seller];\r\n    }\r\n\r\n    function getSuggestedPrice() external view returns (uint256) {\r\n        return energyToken.getAveragePrice(1 days);  // Get average price over last 24 hours\r\n    }\r\n}",
  "sourcePath": "C:\\Users\\user\\Desktop\\LightemPCD\\lightem\\contracts\\FixedPriceMarket.sol",
  "compiler": {
    "name": "solc",
    "version": "0.8.20+commit.a1b79de6.Emscripten.clang"
  },
  "schemaVersion": "3.4.16",
  "updatedAt": "2025-05-09T19:20:49.637Z",
  "devdoc": {
    "errors": {
      "ReentrancyGuardReentrantCall()": [
        {
          "details": "Unauthorized reentrant call."
        }
      ]
    },
    "kind": "dev",
    "methods": {},
    "version": 1
  },
  "userdoc": {
    "kind": "user",
    "methods": {},
    "version": 1
  }
}