{
  "contractName": "ReverseAuctionMarket",
  "abi": [
    {
      "inputs": [
        {
          "internalType": "address",
          "name": "_energyToken",
          "type": "address"
        }
      ],
      "stateMutability": "nonpayable",
      "type": "constructor"
    },
    {
      "inputs": [],
      "name": "ReentrancyGuardReentrantCall",
      "type": "error"
    },
    {
      "anonymous": false,
      "inputs": [
        {
          "indexed": true,
          "internalType": "uint256",
          "name": "auctionId",
          "type": "uint256"
        }
      ],
      "name": "AuctionCancelled",
      "type": "event"
    },
    {
      "anonymous": false,
      "inputs": [
        {
          "indexed": true,
          "internalType": "uint256",
          "name": "auctionId",
          "type": "uint256"
        },
        {
          "indexed": false,
          "internalType": "address",
          "name": "buyer",
          "type": "address"
        },
        {
          "indexed": false,
          "internalType": "uint256",
          "name": "amount",
          "type": "uint256"
        },
        {
          "indexed": false,
          "internalType": "uint256",
          "name": "maxBasePrice",
          "type": "uint256"
        }
      ],
      "name": "AuctionCreated",
      "type": "event"
    },
    {
      "anonymous": false,
      "inputs": [
        {
          "indexed": true,
          "internalType": "uint256",
          "name": "auctionId",
          "type": "uint256"
        },
        {
          "indexed": false,
          "internalType": "address",
          "name": "winner",
          "type": "address"
        },
        {
          "indexed": false,
          "internalType": "uint256",
          "name": "totalPrice",
          "type": "uint256"
        }
      ],
      "name": "AuctionWon",
      "type": "event"
    },
    {
      "anonymous": false,
      "inputs": [
        {
          "indexed": true,
          "internalType": "uint256",
          "name": "auctionId",
          "type": "uint256"
        },
        {
          "indexed": false,
          "internalType": "address",
          "name": "bidder",
          "type": "address"
        },
        {
          "indexed": false,
          "internalType": "uint256",
          "name": "basePrice",
          "type": "uint256"
        }
      ],
      "name": "BidPlaced",
      "type": "event"
    },
    {
      "inputs": [],
      "name": "DISTANCE_FEE_MULTIPLIER",
      "outputs": [
        {
          "internalType": "uint256",
          "name": "",
          "type": "uint256"
        }
      ],
      "stateMutability": "view",
      "type": "function"
    },
    {
      "inputs": [],
      "name": "PLATFORM_FEE_PERCENTAGE",
      "outputs": [
        {
          "internalType": "uint256",
          "name": "",
          "type": "uint256"
        }
      ],
      "stateMutability": "view",
      "type": "function"
    },
    {
      "inputs": [],
      "name": "auctionCount",
      "outputs": [
        {
          "internalType": "uint256",
          "name": "",
          "type": "uint256"
        }
      ],
      "stateMutability": "view",
      "type": "function"
    },
    {
      "inputs": [
        {
          "internalType": "uint256",
          "name": "",
          "type": "uint256"
        }
      ],
      "name": "auctions",
      "outputs": [
        {
          "internalType": "address",
          "name": "buyer",
          "type": "address"
        },
        {
          "internalType": "uint256",
          "name": "amount",
          "type": "uint256"
        },
        {
          "internalType": "uint256",
          "name": "maxBasePrice",
          "type": "uint256"
        },
        {
          "internalType": "uint256",
          "name": "endTime",
          "type": "uint256"
        },
        {
          "internalType": "bool",
          "name": "isActive",
          "type": "bool"
        },
        {
          "internalType": "uint256",
          "name": "bidCount",
          "type": "uint256"
        }
      ],
      "stateMutability": "view",
      "type": "function"
    },
    {
      "inputs": [
        {
          "internalType": "uint256",
          "name": "",
          "type": "uint256"
        },
        {
          "internalType": "uint256",
          "name": "",
          "type": "uint256"
        }
      ],
      "name": "bids",
      "outputs": [
        {
          "internalType": "address",
          "name": "bidder",
          "type": "address"
        },
        {
          "internalType": "uint256",
          "name": "basePrice",
          "type": "uint256"
        },
        {
          "internalType": "bool",
          "name": "isActive",
          "type": "bool"
        }
      ],
      "stateMutability": "view",
      "type": "function"
    },
    {
      "inputs": [
        {
          "internalType": "address",
          "name": "",
          "type": "address"
        },
        {
          "internalType": "uint256",
          "name": "",
          "type": "uint256"
        }
      ],
      "name": "buyerAuctions",
      "outputs": [
        {
          "internalType": "uint256",
          "name": "",
          "type": "uint256"
        }
      ],
      "stateMutability": "view",
      "type": "function"
    },
    {
      "inputs": [],
      "name": "energyToken",
      "outputs": [
        {
          "internalType": "contract EnergyToken",
          "name": "",
          "type": "address"
        }
      ],
      "stateMutability": "view",
      "type": "function"
    },
    {
      "inputs": [],
      "name": "userRegistry",
      "outputs": [
        {
          "internalType": "contract UserRegistry",
          "name": "",
          "type": "address"
        }
      ],
      "stateMutability": "view",
      "type": "function"
    },
    {
      "inputs": [
        {
          "internalType": "uint256",
          "name": "amount",
          "type": "uint256"
        },
        {
          "internalType": "uint256",
          "name": "maxBasePrice",
          "type": "uint256"
        },
        {
          "internalType": "uint256",
          "name": "duration",
          "type": "uint256"
        }
      ],
      "name": "createAuction",
      "outputs": [],
      "stateMutability": "nonpayable",
      "type": "function"
    },
    {
      "inputs": [
        {
          "internalType": "uint256",
          "name": "auctionId",
          "type": "uint256"
        },
        {
          "internalType": "uint256",
          "name": "bidId",
          "type": "uint256"
        }
      ],
      "name": "calculatePrice",
      "outputs": [
        {
          "components": [
            {
              "internalType": "uint256",
              "name": "basePrice",
              "type": "uint256"
            },
            {
              "internalType": "uint256",
              "name": "distanceFee",
              "type": "uint256"
            },
            {
              "internalType": "uint256",
              "name": "platformFee",
              "type": "uint256"
            },
            {
              "internalType": "uint256",
              "name": "totalPrice",
              "type": "uint256"
            }
          ],
          "internalType": "struct ReverseAuctionMarket.PriceBreakdown",
          "name": "",
          "type": "tuple"
        }
      ],
      "stateMutability": "view",
      "type": "function"
    },
    {
      "inputs": [
        {
          "internalType": "uint256",
          "name": "auctionId",
          "type": "uint256"
        },
        {
          "internalType": "uint256",
          "name": "basePrice",
          "type": "uint256"
        }
      ],
      "name": "placeBid",
      "outputs": [],
      "stateMutability": "nonpayable",
      "type": "function"
    },
    {
      "inputs": [
        {
          "internalType": "uint256",
          "name": "auctionId",
          "type": "uint256"
        }
      ],
      "name": "selectWinner",
      "outputs": [],
      "stateMutability": "nonpayable",
      "type": "function"
    },
    {
      "inputs": [
        {
          "internalType": "uint256",
          "name": "auctionId",
          "type": "uint256"
        }
      ],
      "name": "cancelAuction",
      "outputs": [],
      "stateMutability": "nonpayable",
      "type": "function"
    },
    {
      "inputs": [],
      "name": "getActiveAuctions",
      "outputs": [
        {
          "internalType": "uint256[]",
          "name": "auctionIds",
          "type": "uint256[]"
        },
        {
          "internalType": "address[]",
          "name": "buyers",
          "type": "address[]"
        },
        {
          "internalType": "uint256[]",
          "name": "amounts",
          "type": "uint256[]"
        },
        {
          "internalType": "uint256[]",
          "name": "maxBasePrices",
          "type": "uint256[]"
        },
        {
          "internalType": "uint256[]",
          "name": "endTimes",
          "type": "uint256[]"
        }
      ],
      "stateMutability": "view",
      "type": "function"
    },
    {
      "inputs": [
        {
          "internalType": "address",
          "name": "buyer",
          "type": "address"
        }
      ],
      "name": "getAuctionsByBuyer",
      "outputs": [
        {
          "internalType": "uint256[]",
          "name": "",
          "type": "uint256[]"
        }
      ],
      "stateMutability": "view",
      "type": "function"
    },
    {
      "inputs": [
        {
          "internalType": "uint256",
          "name": "auctionId",
          "type": "uint256"
        }
      ],
      "name": "getBidsForAuction",
      "outputs": [
        {
          "internalType": "address[]",
          "name": "bidders",
          "type": "address[]"
        },
        {
          "internalType": "uint256[]",
          "name": "basePrices",
          "type": "uint256[]"
        },
        {
          "internalType": "bool[]",
          "name": "active",
          "type": "bool[]"
        }
      ],
      "stateMutability": "view",
      "type": "function"
    },
    {
      "inputs": [],
      "name": "getSuggestedPrice",
      "outputs": [
        {
          "internalType": "uint256",
          "name": "",
          "type": "uint256"
        }
      ],
      "stateMutability": "view",
      "type": "function"
    }
  ],
  "bytecode": "0x60806040523480156200001157600080fd5b50604051620035e4380380620035e48339818101604052810190620000379190620001c5565b600160008190555080600160006101000a81548173ffffffffffffffffffffffffffffffffffffffff021916908373ffffffffffffffffffffffffffffffffffffffff160217905550600160009054906101000a900473ffffffffffffffffffffffffffffffffffffffff1673ffffffffffffffffffffffffffffffffffffffff16635c7460d66040518163ffffffff1660e01b8152600401602060405180830381865afa158015620000ee573d6000803e3d6000fd5b505050506040513d601f19601f820116820180604052508101906200011491906200023c565b600260006101000a81548173ffffffffffffffffffffffffffffffffffffffff021916908373ffffffffffffffffffffffffffffffffffffffff160217905550506200026e565b600080fd5b600073ffffffffffffffffffffffffffffffffffffffff82169050919050565b60006200018d8262000160565b9050919050565b6200019f8162000180565b8114620001ab57600080fd5b50565b600081519050620001bf8162000194565b92915050565b600060208284031215620001de57620001dd6200015b565b5b6000620001ee84828501620001ae565b91505092915050565b6000620002048262000180565b9050919050565b6200021681620001f7565b81146200022257600080fd5b50565b60008151905062000236816200020b565b92915050565b6000602082840312156200025557620002546200015b565b5b6000620002658482850162000225565b91505092915050565b613366806200027e6000396000f3fe608060405234801561001057600080fd5b506004361061010b5760003560e01c80637b3c4baa116100a2578063cda4beef11610071578063cda4beef146102d3578063ce01fffd146102ef578063cf44b5d51461030d578063d965f6fc1461032f578063e83be716146103615761010b565b80637b3c4baa1461022557806396b5a75514610257578063a0346f8714610273578063a6413a27146102a35761010b565b80634ec7fb81116100de5780634ec7fb8114610198578063571a26a0146101b657806357c90de5146101eb5780635c7460d6146102075761010b565b806315548232146101105780632ad715731461012e57806348eef35d1461014c5780634c524be41461017c575b600080fd5b61011861037f565b6040516101259190611f45565b60405180910390f35b610136610384565b6040516101439190611f45565b60405180910390f35b61016660048036038101906101619190611ffe565b61038a565b6040516101739190611f45565b60405180910390f35b6101966004803603810190610191919061203e565b6103bb565b005b6101a06109ff565b6040516101ad91906120ca565b60405180910390f35b6101d060048036038101906101cb919061203e565b610a25565b6040516101e29695949392919061210f565b60405180910390f35b61020560048036038101906102009190612170565b610a8e565b005b61020f610f76565b60405161021c91906121d1565b60405180910390f35b61023f600480360381019061023a9190612170565b610f9c565b60405161024e939291906121ec565b60405180910390f35b610271600480360381019061026c919061203e565b611000565b005b61028d60048036038101906102889190612223565b611158565b60405161029a919061230e565b60405180910390f35b6102bd60048036038101906102b89190612170565b6111ef565b6040516102ca9190612385565b60405180910390f35b6102ed60048036038101906102e891906123a0565b61140a565b005b6102f7611863565b6040516103049190611f45565b60405180910390f35b610315611868565b6040516103269594939291906124b1565b60405180910390f35b6103496004803603810190610344919061203e565b611bea565b604051610358939291906125e5565b60405180910390f35b610369611e0e565b6040516103769190611f45565b60405180910390f35b606481565b60035481565b600660205281600052604060002081815481106103a657600080fd5b90600052602060002001600091509150505481565b6103c3611eb4565b60006004600083815260200190815260200160002090508060040160009054906101000a900460ff1661042b576040517f08c379a00000000000000000000000000000000000000000000000000000000081526004016104229061268e565b60405180910390fd5b3373ffffffffffffffffffffffffffffffffffffffff168160000160009054906101000a900473ffffffffffffffffffffffffffffffffffffffff1673ffffffffffffffffffffffffffffffffffffffff16146104bd576040517f08c379a00000000000000000000000000000000000000000000000000000000081526004016104b4906126fa565b60405180910390fd5b8060030154421015610504576040517f08c379a00000000000000000000000000000000000000000000000000000000081526004016104fb90612766565b60405180910390fd5b60007fffffffffffffffffffffffffffffffffffffffffffffffffffffffffffffffff905060007fffffffffffffffffffffffffffffffffffffffffffffffffffffffffffffffff905060005b83600501548110156105ca57600060056000878152602001908152602001600020600083815260200190815260200160002090508060020160009054906101000a900460ff1680156105a65750838160010154105b156105b657806001015493508192505b5080806105c2906127b5565b915050610551565b507fffffffffffffffffffffffffffffffffffffffffffffffffffffffffffffffff810361062d576040517f08c379a000000000000000000000000000000000000000000000000000000000815260040161062490612849565b60405180910390fd5b60006005600086815260200190815260200160002060008381526020019081526020016000209050600061066186846111ef565b9050600160009054906101000a900473ffffffffffffffffffffffffffffffffffffffff1673ffffffffffffffffffffffffffffffffffffffff16631b62a420338888600101546040518463ffffffff1660e01b81526004016106c693929190612869565b6020604051808303816000875af11580156106e5573d6000803e3d6000fd5b505050506040513d601f19601f8201168201806040525081019061070991906128cc565b610748576040517f08c379a000000000000000000000000000000000000000000000000000000000815260040161073f90612945565b60405180910390fd5b60008260000160009054906101000a900473ffffffffffffffffffffffffffffffffffffffff1673ffffffffffffffffffffffffffffffffffffffff16826040015183606001516107999190612965565b6040516107a5906129ca565b60006040518083038185875af1925050503d80600081146107e2576040519150601f19603f3d011682016040523d82523d6000602084013e6107e7565b606091505b505090508061082b576040517f08c379a000000000000000000000000000000000000000000000000000000000815260040161082290612a2b565b60405180910390fd5b60008660040160006101000a81548160ff021916908315150217905550600260009054906101000a900473ffffffffffffffffffffffffffffffffffffffff1673ffffffffffffffffffffffffffffffffffffffff1663b99f3db93360016040518363ffffffff1660e01b81526004016108a6929190612a4b565b600060405180830381600087803b1580156108c057600080fd5b505af11580156108d4573d6000803e3d6000fd5b50505050600260009054906101000a900473ffffffffffffffffffffffffffffffffffffffff1673ffffffffffffffffffffffffffffffffffffffff1663b99f3db98460000160009054906101000a900473ffffffffffffffffffffffffffffffffffffffff1660016040518363ffffffff1660e01b815260040161095a929190612a4b565b600060405180830381600087803b15801561097457600080fd5b505af1158015610988573d6000803e3d6000fd5b50505050867f52746d7aec8ff88ae2ea99721a954665b176448184751f576b56019cf259344c8460000160009054906101000a900473ffffffffffffffffffffffffffffffffffffffff1684606001516040516109e6929190612a74565b60405180910390a25050505050506109fc611efa565b50565b600160009054906101000a900473ffffffffffffffffffffffffffffffffffffffff1681565b60046020528060005260406000206000915090508060000160009054906101000a900473ffffffffffffffffffffffffffffffffffffffff16908060010154908060020154908060030154908060040160009054906101000a900460ff16908060050154905086565b610a96611eb4565b600260009054906101000a900473ffffffffffffffffffffffffffffffffffffffff1673ffffffffffffffffffffffffffffffffffffffff1663c3c5a547336040518263ffffffff1660e01b8152600401610af19190612a9d565b602060405180830381865afa158015610b0e573d6000803e3d6000fd5b505050506040513d601f19601f82011682018060405250810190610b3291906128cc565b610b71576040517f08c379a0000000000000000000000000000000000000000000000000000000008152600401610b6890612b04565b60405180910390fd5b60006004600084815260200190815260200160002090508060040160009054906101000a900460ff16610bd9576040517f08c379a0000000000000000000000000000000000000000000000000000000008152600401610bd09061268e565b60405180910390fd5b80600301544210610c1f576040517f08c379a0000000000000000000000000000000000000000000000000000000008152600401610c1690612b70565b60405180910390fd5b8060020154821115610c66576040517f08c379a0000000000000000000000000000000000000000000000000000000008152600401610c5d90612bdc565b60405180910390fd5b6000600260009054906101000a900473ffffffffffffffffffffffffffffffffffffffff1673ffffffffffffffffffffffffffffffffffffffff16636f77926b336040518263ffffffff1660e01b8152600401610cc39190612a9d565b600060405180830381865afa158015610ce0573d6000803e3d6000fd5b505050506040513d6000823e3d601f19601f82011682018060405250810190610d099190612da8565b50935050505080610d4f576040517f08c379a0000000000000000000000000000000000000000000000000000000008152600401610d4690612e8b565b60405180910390fd5b670de0b6b3a76400008260010154610d679190612eab565b600160009054906101000a900473ffffffffffffffffffffffffffffffffffffffff1673ffffffffffffffffffffffffffffffffffffffff166370a08231336040518263ffffffff1660e01b8152600401610dc29190612a9d565b602060405180830381865afa158015610ddf573d6000803e3d6000fd5b505050506040513d601f19601f82011682018060405250810190610e039190612eed565b1015610e44576040517f08c379a0000000000000000000000000000000000000000000000000000000008152600401610e3b90612f66565b60405180910390fd5b6000826005016000815480929190610e5b906127b5565b91905055905060405180606001604052803373ffffffffffffffffffffffffffffffffffffffff1681526020018581526020016001151581525060056000878152602001908152602001600020600083815260200190815260200160002060008201518160000160006101000a81548173ffffffffffffffffffffffffffffffffffffffff021916908373ffffffffffffffffffffffffffffffffffffffff1602179055506020820151816001015560408201518160020160006101000a81548160ff021916908315150217905550905050847f0e54eff26401bf69b81b26f60bd85ef47f5d85275c1d268d84f68d6897431c473386604051610f5f929190612a74565b60405180910390a2505050610f72611efa565b5050565b600260009054906101000a900473ffffffffffffffffffffffffffffffffffffffff1681565b6005602052816000526040600020602052806000526040600020600091509150508060000160009054906101000a900473ffffffffffffffffffffffffffffffffffffffff16908060010154908060020160009054906101000a900460ff16905083565b611008611eb4565b60006004600083815260200190815260200160002090503373ffffffffffffffffffffffffffffffffffffffff168160000160009054906101000a900473ffffffffffffffffffffffffffffffffffffffff1673ffffffffffffffffffffffffffffffffffffffff16146110b1576040517f08c379a00000000000000000000000000000000000000000000000000000000081526004016110a8906126fa565b60405180910390fd5b8060040160009054906101000a900460ff16611102576040517f08c379a00000000000000000000000000000000000000000000000000000000081526004016110f99061268e565b60405180910390fd5b60008160040160006101000a81548160ff021916908315150217905550817f2809c7e17bf978fbc7194c0a694b638c4215e9140cacc6c38ca36010b45697df60405160405180910390a250611155611efa565b50565b6060600660008373ffffffffffffffffffffffffffffffffffffffff1673ffffffffffffffffffffffffffffffffffffffff1681526020019081526020016000208054806020026020016040519081016040528092919081815260200182805480156111e357602002820191906000526020600020905b8154815260200190600101908083116111cf575b50505050509050919050565b6111f7611f04565b6000600460008581526020019081526020016000209050600060056000868152602001908152602001600020600085815260200190815260200160002090508160040160009054906101000a900460ff16801561126257508060020160009054906101000a900460ff165b6112a1576040517f08c379a000000000000000000000000000000000000000000000000000000000815260040161129890612fd2565b60405180910390fd5b6000600260009054906101000a900473ffffffffffffffffffffffffffffffffffffffff1673ffffffffffffffffffffffffffffffffffffffff16632d430a0b8460000160009054906101000a900473ffffffffffffffffffffffffffffffffffffffff168460000160009054906101000a900473ffffffffffffffffffffffffffffffffffffffff166040518363ffffffff1660e01b8152600401611348929190612ff2565b602060405180830381865afa158015611365573d6000803e3d6000fd5b505050506040513d601f19601f820116820180604052508101906113899190612eed565b9050600060648261139a9190612eab565b90506000612710606485600101546113b29190612eab565b6113bc919061304a565b9050604051806080016040528085600101548152602001838152602001828152602001828487600101546113f0919061307b565b6113fa919061307b565b8152509550505050505092915050565b611412611eb4565b60008311611455576040517f08c379a000000000000000000000000000000000000000000000000000000000815260040161144c906130fb565b60405180910390fd5b60008211611498576040517f08c379a000000000000000000000000000000000000000000000000000000000815260040161148f9061318d565b60405180910390fd5b600081116114db576040517f08c379a00000000000000000000000000000000000000000000000000000000081526004016114d2906131f9565b60405180910390fd5b600260009054906101000a900473ffffffffffffffffffffffffffffffffffffffff1673ffffffffffffffffffffffffffffffffffffffff1663c3c5a547336040518263ffffffff1660e01b81526004016115369190612a9d565b602060405180830381865afa158015611553573d6000803e3d6000fd5b505050506040513d601f19601f8201168201806040525081019061157791906128cc565b6115b6576040517f08c379a00000000000000000000000000000000000000000000000000000000081526004016115ad90612b04565b60405180910390fd5b6000600260009054906101000a900473ffffffffffffffffffffffffffffffffffffffff1673ffffffffffffffffffffffffffffffffffffffff16636f77926b336040518263ffffffff1660e01b81526004016116139190612a9d565b600060405180830381865afa158015611630573d6000803e3d6000fd5b505050506040513d6000823e3d601f19601f820116820180604052508101906116599190612da8565b50935050505080156116a0576040517f08c379a00000000000000000000000000000000000000000000000000000000081526004016116979061328b565b60405180910390fd5b6000600360008154809291906116b5906127b5565b9190505590506040518060c001604052803373ffffffffffffffffffffffffffffffffffffffff16815260200186815260200185815260200184426116fa919061307b565b815260200160011515815260200160008152506004600083815260200190815260200160002060008201518160000160006101000a81548173ffffffffffffffffffffffffffffffffffffffff021916908373ffffffffffffffffffffffffffffffffffffffff16021790555060208201518160010155604082015181600201556060820151816003015560808201518160040160006101000a81548160ff02191690831515021790555060a08201518160050155905050600660003373ffffffffffffffffffffffffffffffffffffffff1673ffffffffffffffffffffffffffffffffffffffff168152602001908152602001600020819080600181540180825580915050600190039060005260206000200160009091909190915055807fc9050d42180a61cb0d9ebb8ad118b62fe6eab12cf12ff752c4a0cc7da9ddf62733878760405161184c93929190612869565b60405180910390a2505061185e611efa565b505050565b606481565b60608060608060606000805b6003548110156118c9576004600082815260200190815260200160002060040160009054906101000a900460ff16156118b65781806118b2906127b5565b9250505b80806118c1906127b5565b915050611874565b508067ffffffffffffffff8111156118e4576118e3612c17565b5b6040519080825280602002602001820160405280156119125781602001602082028036833780820191505090505b5095508067ffffffffffffffff81111561192f5761192e612c17565b5b60405190808252806020026020018201604052801561195d5781602001602082028036833780820191505090505b5094508067ffffffffffffffff81111561197a57611979612c17565b5b6040519080825280602002602001820160405280156119a85781602001602082028036833780820191505090505b5093508067ffffffffffffffff8111156119c5576119c4612c17565b5b6040519080825280602002602001820160405280156119f35781602001602082028036833780820191505090505b5092508067ffffffffffffffff811115611a1057611a0f612c17565b5b604051908082528060200260200182016040528015611a3e5781602001602082028036833780820191505090505b5091506000805b600354811015611be0576004600082815260200190815260200160002060040160009054906101000a900460ff1615611bcd5780888381518110611a8c57611a8b6132ab565b5b6020026020010181815250506004600082815260200190815260200160002060000160009054906101000a900473ffffffffffffffffffffffffffffffffffffffff16878381518110611ae257611ae16132ab565b5b602002602001019073ffffffffffffffffffffffffffffffffffffffff16908173ffffffffffffffffffffffffffffffffffffffff16815250506004600082815260200190815260200160002060010154868381518110611b4657611b456132ab565b5b6020026020010181815250506004600082815260200190815260200160002060020154858381518110611b7c57611b7b6132ab565b5b6020026020010181815250506004600082815260200190815260200160002060030154848381518110611bb257611bb16132ab565b5b6020026020010181815250508180611bc9906127b5565b9250505b8080611bd8906127b5565b915050611a45565b5050509091929394565b606080606060006004600086815260200190815260200160002090506000816005015490508067ffffffffffffffff811115611c2957611c28612c17565b5b604051908082528060200260200182016040528015611c575781602001602082028036833780820191505090505b5094508067ffffffffffffffff811115611c7457611c73612c17565b5b604051908082528060200260200182016040528015611ca25781602001602082028036833780820191505090505b5093508067ffffffffffffffff811115611cbf57611cbe612c17565b5b604051908082528060200260200182016040528015611ced5781602001602082028036833780820191505090505b50925060005b81811015611e0457600060056000898152602001908152602001600020600083815260200190815260200160002090508060000160009054906101000a900473ffffffffffffffffffffffffffffffffffffffff16878381518110611d5b57611d5a6132ab565b5b602002602001019073ffffffffffffffffffffffffffffffffffffffff16908173ffffffffffffffffffffffffffffffffffffffff16815250508060010154868381518110611dad57611dac6132ab565b5b6020026020010181815250508060020160009054906101000a900460ff16858381518110611dde57611ddd6132ab565b5b602002602001019015159081151581525050508080611dfc906127b5565b915050611cf3565b5050509193909250565b6000600160009054906101000a900473ffffffffffffffffffffffffffffffffffffffff1673ffffffffffffffffffffffffffffffffffffffff16633c7237ba620151806040518263ffffffff1660e01b8152600401611e6e9190613315565b602060405180830381865afa158015611e8b573d6000803e3d6000fd5b505050506040513d601f19601f82011682018060405250810190611eaf9190612eed565b905090565b600260005403611ef0576040517f3ee5aeb500000000000000000000000000000000000000000000000000000000815260040160405180910390fd5b6002600081905550565b6001600081905550565b6040518060800160405280600081526020016000815260200160008152602001600081525090565b6000819050919050565b611f3f81611f2c565b82525050565b6000602082019050611f5a6000830184611f36565b92915050565b6000604051905090565b600080fd5b600080fd5b600073ffffffffffffffffffffffffffffffffffffffff82169050919050565b6000611f9f82611f74565b9050919050565b611faf81611f94565b8114611fba57600080fd5b50565b600081359050611fcc81611fa6565b92915050565b611fdb81611f2c565b8114611fe657600080fd5b50565b600081359050611ff881611fd2565b92915050565b6000806040838503121561201557612014611f6a565b5b600061202385828601611fbd565b925050602061203485828601611fe9565b9150509250929050565b60006020828403121561205457612053611f6a565b5b600061206284828501611fe9565b91505092915050565b6000819050919050565b600061209061208b61208684611f74565b61206b565b611f74565b9050919050565b60006120a282612075565b9050919050565b60006120b482612097565b9050919050565b6120c4816120a9565b82525050565b60006020820190506120df60008301846120bb565b92915050565b6120ee81611f94565b82525050565b60008115159050919050565b612109816120f4565b82525050565b600060c08201905061212460008301896120e5565b6121316020830188611f36565b61213e6040830187611f36565b61214b6060830186611f36565b6121586080830185612100565b61216560a0830184611f36565b979650505050505050565b6000806040838503121561218757612186611f6a565b5b600061219585828601611fe9565b92505060206121a685828601611fe9565b9150509250929050565b60006121bb82612097565b9050919050565b6121cb816121b0565b82525050565b60006020820190506121e660008301846121c2565b92915050565b600060608201905061220160008301866120e5565b61220e6020830185611f36565b61221b6040830184612100565b949350505050565b60006020828403121561223957612238611f6a565b5b600061224784828501611fbd565b91505092915050565b600081519050919050565b600082825260208201905092915050565b6000819050602082019050919050565b61228581611f2c565b82525050565b6000612297838361227c565b60208301905092915050565b6000602082019050919050565b60006122bb82612250565b6122c5818561225b565b93506122d08361226c565b8060005b838110156123015781516122e8888261228b565b97506122f3836122a3565b9250506001810190506122d4565b5085935050505092915050565b6000602082019050818103600083015261232881846122b0565b905092915050565b608082016000820151612346600085018261227c565b506020820151612359602085018261227c565b50604082015161236c604085018261227c565b50606082015161237f606085018261227c565b50505050565b600060808201905061239a6000830184612330565b92915050565b6000806000606084860312156123b9576123b8611f6a565b5b60006123c786828701611fe9565b93505060206123d886828701611fe9565b92505060406123e986828701611fe9565b9150509250925092565b600081519050919050565b600082825260208201905092915050565b6000819050602082019050919050565b61242881611f94565b82525050565b600061243a838361241f565b60208301905092915050565b6000602082019050919050565b600061245e826123f3565b61246881856123fe565b93506124738361240f565b8060005b838110156124a457815161248b888261242e565b975061249683612446565b925050600181019050612477565b5085935050505092915050565b600060a08201905081810360008301526124cb81886122b0565b905081810360208301526124df8187612453565b905081810360408301526124f381866122b0565b9050818103606083015261250781856122b0565b9050818103608083015261251b81846122b0565b90509695505050505050565b600081519050919050565b600082825260208201905092915050565b6000819050602082019050919050565b61255c816120f4565b82525050565b600061256e8383612553565b60208301905092915050565b6000602082019050919050565b600061259282612527565b61259c8185612532565b93506125a783612543565b8060005b838110156125d85781516125bf8882612562565b97506125ca8361257a565b9250506001810190506125ab565b5085935050505092915050565b600060608201905081810360008301526125ff8186612453565b9050818103602083015261261381856122b0565b905081810360408301526126278184612587565b9050949350505050565b600082825260208201905092915050565b7f41756374696f6e206973206e6f74206163746976650000000000000000000000600082015250565b6000612678601583612631565b915061268382612642565b602082019050919050565b600060208201905081810360008301526126a78161266b565b9050919050565b7f4e6f74207468652061756374696f6e2063726561746f72000000000000000000600082015250565b60006126e4601783612631565b91506126ef826126ae565b602082019050919050565b60006020820190508181036000830152612713816126d7565b9050919050565b7f41756374696f6e20686173206e6f7420656e6465640000000000000000000000600082015250565b6000612750601583612631565b915061275b8261271a565b602082019050919050565b6000602082019050818103600083015261277f81612743565b9050919050565b7f4e487b7100000000000000000000000000000000000000000000000000000000600052601160045260246000fd5b60006127c082611f2c565b91507fffffffffffffffffffffffffffffffffffffffffffffffffffffffffffffffff82036127f2576127f1612786565b5b600182019050919050565b7f4e6f2076616c6964206269647300000000000000000000000000000000000000600082015250565b6000612833600d83612631565b915061283e826127fd565b602082019050919050565b6000602082019050818103600083015261286281612826565b9050919050565b600060608201905061287e60008301866120e5565b61288b6020830185611f36565b6128986040830184611f36565b949350505050565b6128a9816120f4565b81146128b457600080fd5b50565b6000815190506128c6816128a0565b92915050565b6000602082840312156128e2576128e1611f6a565b5b60006128f0848285016128b7565b91505092915050565b7f546f6b656e207472616e73666572206661696c65640000000000000000000000600082015250565b600061292f601583612631565b915061293a826128f9565b602082019050919050565b6000602082019050818103600083015261295e81612922565b9050919050565b600061297082611f2c565b915061297b83611f2c565b925082820390508181111561299357612992612786565b5b92915050565b600081905092915050565b50565b60006129b4600083612999565b91506129bf826129a4565b600082019050919050565b60006129d5826129a7565b9150819050919050565b7f5061796d656e74207472616e73666572206661696c6564000000000000000000600082015250565b6000612a15601783612631565b9150612a20826129df565b602082019050919050565b60006020820190508181036000830152612a4481612a08565b9050919050565b6000604082019050612a6060008301856120e5565b612a6d6020830184612100565b9392505050565b6000604082019050612a8960008301856120e5565b612a966020830184611f36565b9392505050565b6000602082019050612ab260008301846120e5565b92915050565b7f55736572206e6f74207265676973746572656400000000000000000000000000600082015250565b6000612aee601383612631565b9150612af982612ab8565b602082019050919050565b60006020820190508181036000830152612b1d81612ae1565b9050919050565b7f41756374696f6e2068617320656e646564000000000000000000000000000000600082015250565b6000612b5a601183612631565b9150612b6582612b24565b602082019050919050565b60006020820190508181036000830152612b8981612b4d565b9050919050565b7f50726963652065786365656473206d6178696d756d0000000000000000000000600082015250565b6000612bc6601583612631565b9150612bd182612b90565b602082019050919050565b60006020820190508181036000830152612bf581612bb9565b9050919050565b600080fd5b600080fd5b6000601f19601f8301169050919050565b7f4e487b7100000000000000000000000000000000000000000000000000000000600052604160045260246000fd5b612c4f82612c06565b810181811067ffffffffffffffff82111715612c6e57612c6d612c17565b5b80604052505050565b6000612c81611f60565b9050612c8d8282612c46565b919050565b600067ffffffffffffffff821115612cad57612cac612c17565b5b612cb682612c06565b9050602081019050919050565b60005b83811015612ce1578082015181840152602081019050612cc6565b60008484015250505050565b6000612d00612cfb84612c92565b612c77565b905082815260208101848484011115612d1c57612d1b612c01565b5b612d27848285612cc3565b509392505050565b600082601f830112612d4457612d43612bfc565b5b8151612d54848260208601612ced565b91505092915050565b6000819050919050565b612d7081612d5d565b8114612d7b57600080fd5b50565b600081519050612d8d81612d67565b92915050565b600081519050612da281611fd2565b92915050565b600080600080600060a08688031215612dc457612dc3611f6a565b5b600086015167ffffffffffffffff811115612de257612de1611f6f565b5b612dee88828901612d2f565b9550506020612dff88828901612d7e565b9450506040612e1088828901612d7e565b9350506060612e21888289016128b7565b9250506080612e3288828901612d93565b9150509295509295909350565b7f4f6e6c792070726f6475636572732063616e20706c6163652062696473000000600082015250565b6000612e75601d83612631565b9150612e8082612e3f565b602082019050919050565b60006020820190508181036000830152612ea481612e68565b9050919050565b6000612eb682611f2c565b9150612ec183611f2c565b9250828202612ecf81611f2c565b91508282048414831517612ee657612ee5612786565b5b5092915050565b600060208284031215612f0357612f02611f6a565b5b6000612f1184828501612d93565b91505092915050565b7f496e73756666696369656e7420746f6b656e2062616c616e6365000000000000600082015250565b6000612f50601a83612631565b9150612f5b82612f1a565b602082019050919050565b60006020820190508181036000830152612f7f81612f43565b9050919050565b7f41756374696f6e206f7220626964206973206e6f742061637469766500000000600082015250565b6000612fbc601c83612631565b9150612fc782612f86565b602082019050919050565b60006020820190508181036000830152612feb81612faf565b9050919050565b600060408201905061300760008301856120e5565b61301460208301846120e5565b9392505050565b7f4e487b7100000000000000000000000000000000000000000000000000000000600052601260045260246000fd5b600061305582611f2c565b915061306083611f2c565b9250826130705761306f61301b565b5b828204905092915050565b600061308682611f2c565b915061309183611f2c565b92508282019050808211156130a9576130a8612786565b5b92915050565b7f416d6f756e74206d7573742062652067726561746572207468616e2030000000600082015250565b60006130e5601d83612631565b91506130f0826130af565b602082019050919050565b60006020820190508181036000830152613114816130d8565b9050919050565b7f4d61782062617365207072696365206d7573742062652067726561746572207460008201527f68616e2030000000000000000000000000000000000000000000000000000000602082015250565b6000613177602583612631565b91506131828261311b565b604082019050919050565b600060208201905081810360008301526131a68161316a565b9050919050565b7f4475726174696f6e206d7573742062652067726561746572207468616e203000600082015250565b60006131e3601f83612631565b91506131ee826131ad565b602082019050919050565b60006020820190508181036000830152613212816131d6565b9050919050565b7f4f6e6c7920636f6e73756d6572732063616e206372656174652061756374696f60008201527f6e73000000000000000000000000000000000000000000000000000000000000602082015250565b6000613275602283612631565b915061328082613219565b604082019050919050565b600060208201905081810360008301526132a481613268565b9050919050565b7f4e487b7100000000000000000000000000000000000000000000000000000000600052603260045260246000fd5b6000819050919050565b60006132ff6132fa6132f5846132da565b61206b565b611f2c565b9050919050565b61330f816132e4565b82525050565b600060208201905061332a6000830184613306565b9291505056fea26469706673582212207805158af9e2cbb1b13d882442cf0ecfe244cff37d466f917236116167058f4664736f6c63430008140033",
  "immutableReferences": {},
  "source": "// SPDX-License-Identifier: MIT\r\npragma solidity ^0.8.20;\r\n\r\nimport \"@openzeppelin/contracts/utils/ReentrancyGuard.sol\";\r\nimport \"@openzeppelin/contracts/utils/Strings.sol\";  \r\nimport \"./EnergyToken.sol\";\r\nimport \"./UserRegistry.sol\";\r\n\r\ncontract ReverseAuctionMarket is ReentrancyGuard {\r\n    struct Bid {\r\n        address bidder;\r\n        uint256 basePrice;  // in wei\r\n        bool isActive;\r\n    }\r\n    \r\n    struct Auction {\r\n        address buyer;\r\n        uint256 amount;\r\n        uint256 maxBasePrice;  // in wei\r\n        uint256 endTime;\r\n        bool isActive;\r\n        uint256 bidCount;\r\n    }\r\n    \r\n    struct PriceBreakdown {\r\n        uint256 basePrice;\r\n        uint256 distanceFee;\r\n        uint256 platformFee;\r\n        uint256 totalPrice;\r\n    }\r\n    \r\n    EnergyToken public energyToken;\r\n    UserRegistry public userRegistry;\r\n    \r\n    uint256 public auctionCount;\r\n    mapping(uint256 => Auction) public auctions;\r\n    mapping(uint256 => mapping(uint256 => Bid)) public bids; // auctionId => bidId => Bid\r\n    mapping(address => uint256[]) public buyerAuctions;\r\n    \r\n    uint256 public constant PLATFORM_FEE_PERCENTAGE = 100;  // 1% (in basis points)\r\n    uint256 public constant DISTANCE_FEE_MULTIPLIER = 100;  // 0.01 wei per unit of distance\r\n    \r\n    event AuctionCreated(uint256 indexed auctionId, address buyer, uint256 amount, uint256 maxBasePrice);\r\n    event BidPlaced(uint256 indexed auctionId, address bidder, uint256 basePrice);\r\n    event AuctionWon(uint256 indexed auctionId, address winner, uint256 totalPrice);\r\n    event AuctionCancelled(uint256 indexed auctionId);\r\n\r\n    constructor(address _energyToken) {\r\n        energyToken = EnergyToken(_energyToken);\r\n        userRegistry = UserRegistry(energyToken.userRegistry());\r\n    }\r\n\r\n    function createAuction(uint256 amount, uint256 maxBasePrice, uint256 duration) external nonReentrant {\r\n        require(amount > 0, \"Amount must be greater than 0\");\r\n        require(maxBasePrice > 0, \"Max base price must be greater than 0\");\r\n        require(duration > 0, \"Duration must be greater than 0\");\r\n        require(userRegistry.isRegistered(msg.sender), \"User not registered\");\r\n        \r\n        (, , , bool isProducer, ) = userRegistry.getUser(msg.sender);\r\n        require(!isProducer, \"Only consumers can create auctions\");\r\n        \r\n        uint256 auctionId = auctionCount++;\r\n        auctions[auctionId] = Auction({\r\n            buyer: msg.sender,\r\n            amount: amount,\r\n            maxBasePrice: maxBasePrice,\r\n            endTime: block.timestamp + duration,\r\n            isActive: true,\r\n            bidCount: 0\r\n        });\r\n        \r\n        buyerAuctions[msg.sender].push(auctionId);\r\n        emit AuctionCreated(auctionId, msg.sender, amount, maxBasePrice);\r\n    }\r\n\r\n    function calculatePrice(\r\n        uint256 auctionId,\r\n        uint256 bidId\r\n    ) public view returns (PriceBreakdown memory) {\r\n        Auction storage auction = auctions[auctionId];\r\n        Bid storage bid = bids[auctionId][bidId];\r\n        require(auction.isActive && bid.isActive, \"Auction or bid is not active\");\r\n        \r\n        uint256 distance = userRegistry.calculateDistance(auction.buyer, bid.bidder);\r\n        uint256 distanceFee = distance * DISTANCE_FEE_MULTIPLIER;\r\n        uint256 platformFee = (bid.basePrice * PLATFORM_FEE_PERCENTAGE) / 10000;\r\n        \r\n        return PriceBreakdown({\r\n            basePrice: bid.basePrice,\r\n            distanceFee: distanceFee,\r\n            platformFee: platformFee,\r\n            totalPrice: bid.basePrice + distanceFee + platformFee\r\n        });\r\n    }\r\n\r\n    function placeBid(uint256 auctionId, uint256 basePrice) external nonReentrant {\r\n        require(userRegistry.isRegistered(msg.sender), \"User not registered\");\r\n        \r\n        Auction storage auction = auctions[auctionId];\r\n        require(auction.isActive, \"Auction is not active\");\r\n        require(block.timestamp < auction.endTime, \"Auction has ended\");\r\n        require(basePrice <= auction.maxBasePrice, \"Price exceeds maximum\");\r\n        \r\n        (, , , bool isProducer, ) = userRegistry.getUser(msg.sender);\r\n        require(isProducer, \"Only producers can place bids\");\r\n        \r\n        require(\r\n            energyToken.balanceOf(msg.sender) >= auction.amount * 1e18,\r\n            \"Insufficient token balance\"\r\n        );\r\n        \r\n        uint256 bidId = auction.bidCount++;\r\n        bids[auctionId][bidId] = Bid({\r\n            bidder: msg.sender,\r\n            basePrice: basePrice,\r\n            isActive: true\r\n        });\r\n        \r\n        emit BidPlaced(auctionId, msg.sender, basePrice);\r\n    }\r\n\r\n    function selectWinner(uint256 auctionId) external nonReentrant {\r\n        Auction storage auction = auctions[auctionId];\r\n        require(auction.isActive, \"Auction is not active\");\r\n        require(auction.buyer == msg.sender, \"Not the auction creator\");\r\n        require(block.timestamp >= auction.endTime, \"Auction has not ended\");\r\n        \r\n        uint256 lowestBasePrice = type(uint256).max;\r\n        uint256 winningBidId = type(uint256).max;\r\n        \r\n        for (uint256 i = 0; i < auction.bidCount; i++) {\r\n            Bid storage bid = bids[auctionId][i];\r\n            if (bid.isActive && bid.basePrice < lowestBasePrice) {\r\n                lowestBasePrice = bid.basePrice;\r\n                winningBidId = i;\r\n            }\r\n        }\r\n        \r\n        require(winningBidId != type(uint256).max, \"No valid bids\");\r\n        \r\n        Bid storage winningBid = bids[auctionId][winningBidId];\r\n        PriceBreakdown memory price = calculatePrice(auctionId, winningBidId);\r\n        \r\n        // Transfer tokens\r\n        require(\r\n            energyToken.transferWithBatch(\r\n                msg.sender,\r\n                auctionId,\r\n                auction.amount\r\n            ),\r\n            \"Token transfer failed\"\r\n        );\r\n        \r\n        // Transfer payment to winner (minus platform fee)\r\n        (bool success, ) = winningBid.bidder.call{value: price.totalPrice - price.platformFee}(\"\");\r\n        require(success, \"Payment transfer failed\");\r\n        \r\n        // Update auction\r\n        auction.isActive = false;\r\n        \r\n        // Record transaction\r\n        userRegistry.recordTransaction(msg.sender, true);\r\n        userRegistry.recordTransaction(winningBid.bidder, true);\r\n        \r\n        emit AuctionWon(auctionId, winningBid.bidder, price.totalPrice);\r\n    }\r\n\r\n    function cancelAuction(uint256 auctionId) external nonReentrant {\r\n        Auction storage auction = auctions[auctionId];\r\n        require(auction.buyer == msg.sender, \"Not the auction creator\");\r\n        require(auction.isActive, \"Auction is not active\");\r\n        \r\n        auction.isActive = false;\r\n        emit AuctionCancelled(auctionId);\r\n    }\r\n\r\n    function getActiveAuctions() external view returns (\r\n        uint256[] memory auctionIds,\r\n        address[] memory buyers,\r\n        uint256[] memory amounts,\r\n        uint256[] memory maxBasePrices,\r\n        uint256[] memory endTimes\r\n    ) {\r\n        uint256 activeCount = 0;\r\n        \r\n        // Count active auctions\r\n        for (uint256 i = 0; i < auctionCount; i++) {\r\n            if (auctions[i].isActive) {\r\n                activeCount++;\r\n            }\r\n        }\r\n        \r\n        // Initialize arrays\r\n        auctionIds = new uint256[](activeCount);\r\n        buyers = new address[](activeCount);\r\n        amounts = new uint256[](activeCount);\r\n        maxBasePrices = new uint256[](activeCount);\r\n        endTimes = new uint256[](activeCount);\r\n        \r\n        // Fill arrays\r\n        uint256 currentIndex = 0;\r\n        for (uint256 i = 0; i < auctionCount; i++) {\r\n            if (auctions[i].isActive) {\r\n                auctionIds[currentIndex] = i;\r\n                buyers[currentIndex] = auctions[i].buyer;\r\n                amounts[currentIndex] = auctions[i].amount;\r\n                maxBasePrices[currentIndex] = auctions[i].maxBasePrice;\r\n                endTimes[currentIndex] = auctions[i].endTime;\r\n                currentIndex++;\r\n            }\r\n        }\r\n        \r\n        return (auctionIds, buyers, amounts, maxBasePrices, endTimes);\r\n    }\r\n\r\n    function getAuctionsByBuyer(address buyer) external view returns (uint256[] memory) {\r\n        return buyerAuctions[buyer];\r\n    }\r\n\r\n    function getBidsForAuction(uint256 auctionId) external view returns (\r\n        address[] memory bidders,\r\n        uint256[] memory basePrices,\r\n        bool[] memory active\r\n    ) {\r\n        Auction storage auction = auctions[auctionId];\r\n        uint256 bidCount = auction.bidCount;\r\n        \r\n        bidders = new address[](bidCount);\r\n        basePrices = new uint256[](bidCount);\r\n        active = new bool[](bidCount);\r\n        \r\n        for (uint256 i = 0; i < bidCount; i++) {\r\n            Bid storage bid = bids[auctionId][i];\r\n            bidders[i] = bid.bidder;\r\n            basePrices[i] = bid.basePrice;\r\n            active[i] = bid.isActive;\r\n        }\r\n        \r\n        return (bidders, basePrices, active);\r\n    }\r\n\r\n    function getSuggestedPrice() external view returns (uint256) {\r\n        return energyToken.getAveragePrice(1 days);  // Get average price over last 24 hours\r\n    }\r\n}",
  "sourcePath": "C:\\Users\\user\\Desktop\\LightemPCD\\lightem\\contracts\\ReverseAuctionMarket.sol",
  "compiler": {
    "name": "solc",
    "version": "0.8.20+commit.a1b79de6.Emscripten.clang"
  },
  "schemaVersion": "3.4.16",
  "updatedAt": "2025-05-09T19:20:49.651Z",
  "devdoc": {
    "errors": {
      "ReentrancyGuardReentrantCall()": [
        {
          "details": "Unauthorized reentrant call."
        }
      ]
    },
    "kind": "dev",
    "methods": {},
    "version": 1
  },
  "userdoc": {
    "kind": "user",
    "methods": {},
    "version": 1
  }
}