{
  "contractName": "UserRegistry",
  "abi": [
    {
      "anonymous": false,
      "inputs": [
        {
          "indexed": true,
          "internalType": "address",
          "name": "user",
          "type": "address"
        },
        {
          "indexed": false,
          "internalType": "int256",
          "name": "latitude",
          "type": "int256"
        },
        {
          "indexed": false,
          "internalType": "int256",
          "name": "longitude",
          "type": "int256"
        }
      ],
      "name": "LocationUpdated",
      "type": "event"
    },
    {
      "anonymous": false,
      "inputs": [
        {
          "indexed": true,
          "internalType": "address",
          "name": "user",
          "type": "address"
        },
        {
          "indexed": false,
          "internalType": "uint256",
          "name": "newReputation",
          "type": "uint256"
        }
      ],
      "name": "ReputationUpdated",
      "type": "event"
    },
    {
      "anonymous": false,
      "inputs": [
        {
          "indexed": true,
          "internalType": "address",
          "name": "user",
          "type": "address"
        },
        {
          "indexed": false,
          "internalType": "bool",
          "name": "isProducer",
          "type": "bool"
        }
      ],
      "name": "UserRegistered",
      "type": "event"
    },
    {
      "inputs": [
        {
          "internalType": "address",
          "name": "",
          "type": "address"
        }
      ],
      "name": "isRegistered",
      "outputs": [
        {
          "internalType": "bool",
          "name": "",
          "type": "bool"
        }
      ],
      "stateMutability": "view",
      "type": "function",
      "constant": true
    },
    {
      "inputs": [
        {
          "internalType": "address",
          "name": "",
          "type": "address"
        }
      ],
      "name": "users",
      "outputs": [
        {
          "internalType": "string",
          "name": "name",
          "type": "string"
        },
        {
          "internalType": "int256",
          "name": "latitude",
          "type": "int256"
        },
        {
          "internalType": "int256",
          "name": "longitude",
          "type": "int256"
        },
        {
          "internalType": "bool",
          "name": "isProducer",
          "type": "bool"
        },
        {
          "internalType": "uint256",
          "name": "reputation",
          "type": "uint256"
        }
      ],
      "stateMutability": "view",
      "type": "function",
      "constant": true
    },
    {
      "inputs": [
        {
          "internalType": "string",
          "name": "name",
          "type": "string"
        },
        {
          "internalType": "int256",
          "name": "latitude",
          "type": "int256"
        },
        {
          "internalType": "int256",
          "name": "longitude",
          "type": "int256"
        },
        {
          "internalType": "bool",
          "name": "asProducer",
          "type": "bool"
        }
      ],
      "name": "registerUser",
      "outputs": [],
      "stateMutability": "nonpayable",
      "type": "function"
    },
    {
      "inputs": [
        {
          "internalType": "int256",
          "name": "latitude",
          "type": "int256"
        },
        {
          "internalType": "int256",
          "name": "longitude",
          "type": "int256"
        }
      ],
      "name": "updateLocation",
      "outputs": [],
      "stateMutability": "nonpayable",
      "type": "function"
    },
    {
      "inputs": [
        {
          "internalType": "address",
          "name": "user",
          "type": "address"
        },
        {
          "internalType": "bool",
          "name": "success",
          "type": "bool"
        }
      ],
      "name": "recordTransaction",
      "outputs": [],
      "stateMutability": "nonpayable",
      "type": "function"
    },
    {
      "inputs": [
        {
          "internalType": "address",
          "name": "user",
          "type": "address"
        }
      ],
      "name": "getUser",
      "outputs": [
        {
          "internalType": "string",
          "name": "name",
          "type": "string"
        },
        {
          "internalType": "int256",
          "name": "latitude",
          "type": "int256"
        },
        {
          "internalType": "int256",
          "name": "longitude",
          "type": "int256"
        },
        {
          "internalType": "bool",
          "name": "isProducer",
          "type": "bool"
        },
        {
          "internalType": "uint256",
          "name": "reputation",
          "type": "uint256"
        }
      ],
      "stateMutability": "view",
      "type": "function",
      "constant": true
    },
    {
      "inputs": [
        {
          "internalType": "address",
          "name": "user1",
          "type": "address"
        },
        {
          "internalType": "address",
          "name": "user2",
          "type": "address"
        }
      ],
      "name": "calculateDistance",
      "outputs": [
        {
          "internalType": "uint256",
          "name": "",
          "type": "uint256"
        }
      ],
      "stateMutability": "view",
      "type": "function",
      "constant": true
    }
  ],
  "bytecode": "0x608060405234801561001057600080fd5b50611610806100206000396000f3fe608060405234801561001057600080fd5b506004361061007d5760003560e01c80639f6f6c791161005b5780639f6f6c7914610102578063a87430ba1461011e578063b99f3db914610152578063c3c5a5471461016e5761007d565b80632d430a0b146100825780636f77926b146100b25780638b603300146100e6575b600080fd5b61009c60048036038101906100979190610bbf565b61019e565b6040516100a99190610c18565b60405180910390f35b6100cc60048036038101906100c79190610c33565b610369565b6040516100dd959493929190610d24565b60405180910390f35b61010060048036038101906100fb9190610daa565b610504565b005b61011c60048036038101906101179190610e7b565b610670565b005b61013860048036038101906101339190610c33565b6108f2565b604051610149959493929190610d24565b60405180910390f35b61016c60048036038101906101679190610f03565b6109bd565b005b61018860048036038101906101839190610c33565b610b37565b6040516101959190610f43565b60405180910390f35b6000600160008473ffffffffffffffffffffffffffffffffffffffff1673ffffffffffffffffffffffffffffffffffffffff16815260200190815260200160002060009054906101000a900460ff1680156102425750600160008373ffffffffffffffffffffffffffffffffffffffff1673ffffffffffffffffffffffffffffffffffffffff16815260200190815260200160002060009054906101000a900460ff165b610281576040517f08c379a000000000000000000000000000000000000000000000000000000000815260040161027890610faa565b60405180910390fd5b60008060008573ffffffffffffffffffffffffffffffffffffffff1673ffffffffffffffffffffffffffffffffffffffff168152602001908152602001600020905060008060008573ffffffffffffffffffffffffffffffffffffffff1673ffffffffffffffffffffffffffffffffffffffff168152602001908152602001600020905060008160010154836001015461031b9190610ff9565b90506000826002015484600201546103339190610ff9565b905060008182610343919061103c565b838461034f919061103c565b61035991906110b4565b9050809550505050505092915050565b6060600080600080600160008773ffffffffffffffffffffffffffffffffffffffff1673ffffffffffffffffffffffffffffffffffffffff16815260200190815260200160002060009054906101000a900460ff166103fd576040517f08c379a00000000000000000000000000000000000000000000000000000000081526004016103f490611144565b60405180910390fd5b60008060008873ffffffffffffffffffffffffffffffffffffffff1673ffffffffffffffffffffffffffffffffffffffff168152602001908152602001600020905080600001816001015482600201548360030160009054906101000a900460ff16846004015484805461047090611193565b80601f016020809104026020016040519081016040528092919081815260200182805461049c90611193565b80156104e95780601f106104be576101008083540402835291602001916104e9565b820191906000526020600020905b8154815290600101906020018083116104cc57829003601f168201915b50505050509450955095509550955095505091939590929450565b600160003373ffffffffffffffffffffffffffffffffffffffff1673ffffffffffffffffffffffffffffffffffffffff16815260200190815260200160002060009054906101000a900460ff16610590576040517f08c379a000000000000000000000000000000000000000000000000000000000815260040161058790611144565b60405180910390fd5b816000803373ffffffffffffffffffffffffffffffffffffffff1673ffffffffffffffffffffffffffffffffffffffff16815260200190815260200160002060010181905550806000803373ffffffffffffffffffffffffffffffffffffffff1673ffffffffffffffffffffffffffffffffffffffff168152602001908152602001600020600201819055503373ffffffffffffffffffffffffffffffffffffffff167fd37c4c34d9df6e8dc2451ee569b4952baf626a1649e7d10f480977784fdd519b83836040516106649291906111c4565b60405180910390a25050565b600160003373ffffffffffffffffffffffffffffffffffffffff1673ffffffffffffffffffffffffffffffffffffffff16815260200190815260200160002060009054906101000a900460ff16156106fd576040517f08c379a00000000000000000000000000000000000000000000000000000000081526004016106f490611239565b60405180910390fd5b60008585905011610743576040517f08c379a000000000000000000000000000000000000000000000000000000000815260040161073a906112a5565b60405180910390fd5b6040518060a0016040528086868080601f016020809104026020016040519081016040528093929190818152602001838380828437600081840152601f19601f820116905080830192505050505050508152602001848152602001838152602001821515815260200160648152506000803373ffffffffffffffffffffffffffffffffffffffff1673ffffffffffffffffffffffffffffffffffffffff168152602001908152602001600020600082015181600001908161080491906114a0565b50602082015181600101556040820151816002015560608201518160030160006101000a81548160ff0219169083151502179055506080820151816004015590505060018060003373ffffffffffffffffffffffffffffffffffffffff1673ffffffffffffffffffffffffffffffffffffffff16815260200190815260200160002060006101000a81548160ff0219169083151502179055503373ffffffffffffffffffffffffffffffffffffffff167f28a24a60e275c9be5babc23ecefd3240b1fcd56ef4d3fe4818437200b55ae5ff826040516108e39190610f43565b60405180910390a25050505050565b600060205280600052604060002060009150905080600001805461091590611193565b80601f016020809104026020016040519081016040528092919081815260200182805461094190611193565b801561098e5780601f106109635761010080835404028352916020019161098e565b820191906000526020600020905b81548152906001019060200180831161097157829003601f168201915b5050505050908060010154908060020154908060030160009054906101000a900460ff16908060040154905085565b600160008373ffffffffffffffffffffffffffffffffffffffff1673ffffffffffffffffffffffffffffffffffffffff16815260200190815260200160002060009054906101000a900460ff16610a49576040517f08c379a0000000000000000000000000000000000000000000000000000000008152600401610a4090611144565b60405180910390fd5b60008060008473ffffffffffffffffffffffffffffffffffffffff1673ffffffffffffffffffffffffffffffffffffffff16815260200190815260200160002090508115610ab2576001816004016000828254610aa69190611572565b92505081905550610ae0565b6001816004015411610ac5576001610ad7565b60018160040154610ad691906115a6565b5b81600401819055505b8273ffffffffffffffffffffffffffffffffffffffff167ffc577563f1b9a0461e24abef1e1fcc0d33d3d881f20b5df6dda59de4aae2c8218260040154604051610b2a9190610c18565b60405180910390a2505050565b60016020528060005260406000206000915054906101000a900460ff1681565b600080fd5b600080fd5b600073ffffffffffffffffffffffffffffffffffffffff82169050919050565b6000610b8c82610b61565b9050919050565b610b9c81610b81565b8114610ba757600080fd5b50565b600081359050610bb981610b93565b92915050565b60008060408385031215610bd657610bd5610b57565b5b6000610be485828601610baa565b9250506020610bf585828601610baa565b9150509250929050565b6000819050919050565b610c1281610bff565b82525050565b6000602082019050610c2d6000830184610c09565b92915050565b600060208284031215610c4957610c48610b57565b5b6000610c5784828501610baa565b91505092915050565b600081519050919050565b600082825260208201905092915050565b60005b83811015610c9a578082015181840152602081019050610c7f565b60008484015250505050565b6000601f19601f8301169050919050565b6000610cc282610c60565b610ccc8185610c6b565b9350610cdc818560208601610c7c565b610ce581610ca6565b840191505092915050565b6000819050919050565b610d0381610cf0565b82525050565b60008115159050919050565b610d1e81610d09565b82525050565b600060a0820190508181036000830152610d3e8188610cb7565b9050610d4d6020830187610cfa565b610d5a6040830186610cfa565b610d676060830185610d15565b610d746080830184610c09565b9695505050505050565b610d8781610cf0565b8114610d9257600080fd5b50565b600081359050610da481610d7e565b92915050565b60008060408385031215610dc157610dc0610b57565b5b6000610dcf85828601610d95565b9250506020610de085828601610d95565b9150509250929050565b600080fd5b600080fd5b600080fd5b60008083601f840112610e0f57610e0e610dea565b5b8235905067ffffffffffffffff811115610e2c57610e2b610def565b5b602083019150836001820283011115610e4857610e47610df4565b5b9250929050565b610e5881610d09565b8114610e6357600080fd5b50565b600081359050610e7581610e4f565b92915050565b600080600080600060808688031215610e9757610e96610b57565b5b600086013567ffffffffffffffff811115610eb557610eb4610b5c565b5b610ec188828901610df9565b95509550506020610ed488828901610d95565b9350506040610ee588828901610d95565b9250506060610ef688828901610e66565b9150509295509295909350565b60008060408385031215610f1a57610f19610b57565b5b6000610f2885828601610baa565b9250506020610f3985828601610e66565b9150509250929050565b6000602082019050610f586000830184610d15565b92915050565b7f5573657273206e6f742072656769737465726564000000000000000000000000600082015250565b6000610f94601483610c6b565b9150610f9f82610f5e565b602082019050919050565b60006020820190508181036000830152610fc381610f87565b9050919050565b7f4e487b7100000000000000000000000000000000000000000000000000000000600052601160045260246000fd5b600061100482610cf0565b915061100f83610cf0565b925082820390508181126000841216828213600085121516171561103657611035610fca565b5b92915050565b600061104782610cf0565b915061105283610cf0565b925082820261106081610cf0565b91507f8000000000000000000000000000000000000000000000000000000000000000841460008412161561109857611097610fca565b5b82820584148315176110ad576110ac610fca565b5b5092915050565b60006110bf82610cf0565b91506110ca83610cf0565b9250828201905082811215600083121683821260008412151617156110f2576110f1610fca565b5b92915050565b7f55736572206e6f74207265676973746572656400000000000000000000000000600082015250565b600061112e601383610c6b565b9150611139826110f8565b602082019050919050565b6000602082019050818103600083015261115d81611121565b9050919050565b7f4e487b7100000000000000000000000000000000000000000000000000000000600052602260045260246000fd5b600060028204905060018216806111ab57607f821691505b6020821081036111be576111bd611164565b5b50919050565b60006040820190506111d96000830185610cfa565b6111e66020830184610cfa565b9392505050565b7f416c726561647920726567697374657265640000000000000000000000000000600082015250565b6000611223601283610c6b565b915061122e826111ed565b602082019050919050565b6000602082019050818103600083015261125281611216565b9050919050565b7f4e616d652063616e6e6f7420626520656d707479000000000000000000000000600082015250565b600061128f601483610c6b565b915061129a82611259565b602082019050919050565b600060208201905081810360008301526112be81611282565b9050919050565b7f4e487b7100000000000000000000000000000000000000000000000000000000600052604160045260246000fd5b60008190508160005260206000209050919050565b60006020601f8301049050919050565b600082821b905092915050565b6000600883026113567fffffffffffffffffffffffffffffffffffffffffffffffffffffffffffffffff82611319565b6113608683611319565b95508019841693508086168417925050509392505050565b6000819050919050565b600061139d61139861139384610bff565b611378565b610bff565b9050919050565b6000819050919050565b6113b783611382565b6113cb6113c3826113a4565b848454611326565b825550505050565b600090565b6113e06113d3565b6113eb8184846113ae565b505050565b5b8181101561140f576114046000826113d8565b6001810190506113f1565b5050565b601f82111561145457611425816112f4565b61142e84611309565b8101602085101561143d578190505b61145161144985611309565b8301826113f0565b50505b505050565b600082821c905092915050565b600061147760001984600802611459565b1980831691505092915050565b60006114908383611466565b9150826002028217905092915050565b6114a982610c60565b67ffffffffffffffff8111156114c2576114c16112c5565b5b6114cc8254611193565b6114d7828285611413565b600060209050601f83116001811461150a57600084156114f8578287015190505b6115028582611484565b86555061156a565b601f198416611518866112f4565b60005b828110156115405784890151825560018201915060208501945060208101905061151b565b8683101561155d5784890151611559601f891682611466565b8355505b6001600288020188555050505b505050505050565b600061157d82610bff565b915061158883610bff565b92508282019050808211156115a05761159f610fca565b5b92915050565b60006115b182610bff565b91506115bc83610bff565b92508282039050818111156115d4576115d3610fca565b5b9291505056fea2646970667358221220b5589b606d7f2162f66db25bf8bfb57d113f7466748ce5bbc43a7e9f8ad53ec464736f6c63430008140033",
  "immutableReferences": {},
  "source": "// SPDX-License-Identifier: MIT\r\npragma solidity ^0.8.20;\r\n\r\ncontract UserRegistry {\r\n    struct User {\r\n        string name;\r\n        int256 latitude;\r\n        int256 longitude;\r\n        bool isProducer;\r\n        uint256 reputation;\r\n    }\r\n    \r\n    mapping(address => User) public users;\r\n    mapping(address => bool) public isRegistered;\r\n    \r\n    event UserRegistered(address indexed user, bool isProducer);\r\n    event LocationUpdated(address indexed user, int256 latitude, int256 longitude);\r\n    event ReputationUpdated(address indexed user, uint256 newReputation);\r\n\r\n    function registerUser(\r\n        string calldata name,\r\n        int256 latitude,\r\n        int256 longitude,\r\n        bool asProducer\r\n    ) external {\r\n        require(!isRegistered[msg.sender], \"Already registered\");\r\n        require(bytes(name).length > 0, \"Name cannot be empty\");\r\n        \r\n        users[msg.sender] = User({\r\n            name: name,\r\n            latitude: latitude,\r\n            longitude: longitude,\r\n            isProducer: asProducer,\r\n            reputation: 100  // Start with 100 reputation\r\n        });\r\n        \r\n        isRegistered[msg.sender] = true;\r\n        emit UserRegistered(msg.sender, asProducer);\r\n    }\r\n\r\n    function updateLocation(int256 latitude, int256 longitude) external {\r\n        require(isRegistered[msg.sender], \"User not registered\");\r\n        users[msg.sender].latitude = latitude;\r\n        users[msg.sender].longitude = longitude;\r\n        emit LocationUpdated(msg.sender, latitude, longitude);\r\n    }\r\n\r\n    function recordTransaction(address user, bool success) external {\r\n        require(isRegistered[user], \"User not registered\");\r\n        \r\n        User storage userData = users[user];\r\n        if(success) {\r\n            userData.reputation += 1;\r\n        } else {\r\n            userData.reputation = userData.reputation > 1 ? userData.reputation - 1 : 1;\r\n        }\r\n        \r\n        emit ReputationUpdated(user, userData.reputation);\r\n    }\r\n\r\n    function getUser(address user) external view returns (\r\n        string memory name,\r\n        int256 latitude,\r\n        int256 longitude,\r\n        bool isProducer,\r\n        uint256 reputation\r\n    ) {\r\n        require(isRegistered[user], \"User not registered\");\r\n        User storage userData = users[user];\r\n        \r\n        return (\r\n            userData.name,\r\n            userData.latitude,\r\n            userData.longitude,\r\n            userData.isProducer,\r\n            userData.reputation\r\n        );\r\n    }\r\n\r\n    function calculateDistance(\r\n        address user1,\r\n        address user2\r\n    ) external view returns (uint256) {\r\n        require(isRegistered[user1] && isRegistered[user2], \"Users not registered\");\r\n        \r\n        User storage user1Data = users[user1];\r\n        User storage user2Data = users[user2];\r\n        \r\n        // Simple distance calculation (can be improved for accuracy)\r\n        int256 latDiff = user1Data.latitude - user2Data.latitude;\r\n        int256 longDiff = user1Data.longitude - user2Data.longitude;\r\n        \r\n        // Convert to positive values and calculate distance\r\n        uint256 distance = uint256(\r\n            (latDiff * latDiff + longDiff * longDiff)\r\n        );\r\n        \r\n        return distance;\r\n    }\r\n}",
  "sourcePath": "C:\\Users\\SEIFEDDINE SAID\\Desktop\\LightemPCD\\lightem\\contracts\\UserRegistry.sol",
  "compiler": {
    "name": "solc",
    "version": "0.8.20+commit.a1b79de6.Emscripten.clang"
  },
  "schemaVersion": "3.4.16",
  "updatedAt": "2025-05-07T15:53:03.110Z",
  "networkType": "ethereum",
  "devdoc": {
    "kind": "dev",
    "methods": {},
    "version": 1
  },
  "userdoc": {
    "kind": "user",
    "methods": {},
    "version": 1
  }
}